:040000008A15F7283E
:0E000600831203132D088A002C0882000800C4
:1000140083120313FB01FA01F9018030F800F10C9B
:10002400F00C031C1E287408F90775080318750FD3
:10003400FA070318FB0A0310F01F26287408FA07AE
:1000440075080318750FFB07FB0CFA0CF90CF80C78
:10005400031C11287B08F3007A08F2007908F100E8
:060064007808F00008001E
:10006A0083120313371D9028B71C4B28371C4028CE
:10007A002D30F00042282B30F00069088400700807
:10008A008000E90AB20A0319B30A7B28371C5628EA
:10009A006908840020308000E90AB20A0319B30A09
:1000AA007B28C0303705F10038080839F200720899
:1000BA00083A031D622880307106031D7B286908EF
:1000CA00840030308000E90AB20A0319B30AB71E65
:1000DA0071285830F00073287830F00069088400DD
:1000EA0070088000E90AB20A0319B30A3008310419
:1000FA0003198F286908840030308000E90AB20A9F
:10010A000319B30A0130B002031CB10330083104E9
:10011A00031D7F28FE28300831040319A628B719C1
:10012A00A6286908840020308000E90AB20A031967
:10013A00B30A0130B002031CB10330083104031DB5
:10014A009628B71CB828371CAD282D30F000AF28E8
:10015A002B30F0006908840070088000E90AB20AAE
:10016A000319B30AC228371CC22869088400203040
:10017A008000E90AB20A0319B30AC0303705F10050
:10018A0038080839F2007208083A031DCE284030B0
:10019A007106031DD9286908840030308000E90AF5
:1001AA00B20A0319B30AFE28C0303705F10038082D
:1001BA000839F2007208083A031DE52880307106F2
:1001CA00031DFE286908840030308000E90AB20A5B
:1001DA000319B30AB71EF4285830F000F62878300D
:1001EA00F0006908840070088000E90AB20A03195D
:1001FA00B30A8030F000803035067002031D0729EB
:10020A003408360203181229690884003030800045
:10021A00E90AB20A0319B30AFE286908F0000800BD
:10022A00312983120313B715E90A0319EA0A702957
:10023A003714E90A0319EA0A7029B714E90A0319F3
:10024A00EA0A7029B815E90A0319EA0A7029371562
:10025A00E90A0319EA0A7029831203136908AC0030
:10026A006A08AD0003208A110A12F10071082D3ABA
:10027A00031916296908AC006A08AD0003208A111F
:10028A000A12F1007108203A03191D296908AC0005
:10029A006A08AD0003208A110A12F10071082B3A8C
:1002AA00031922296908AC006A08AD0003208A11E3
:1002BA000A12F1007108233A031927296908AC00C8
:1002CA006A08AD0003208A110A12F1007108303A57
:1002DA0003192C2971291529B71C74293710B71D40
:0E02EA00772937116908F0006A08F100080052
:0802F800FA1FF21300300800A8
:100300007B15FB1F8A290130F300F201F101F00196
:08031000FA0DF20CFF300800A9
:0E031800F201F101F001F801F30100300800DC
:1003260083120313F801F9011030FC00710DF80D6A
:10033600F90D7408F8027508031C750FF902031805
:10034600AB297408F80775080318750FF907031029
:0A035600F00DF10DFC0B99290800D1
:10036000831203136908393C031CBD29303069022C
:0E037000031CBD290130F000BE29F001080079
:10037E00831603139818C5290000BF29831261083C
:04038E0099000800CA
:100392007B14FB1FD429F201FA1FFF30F200F10097
:0A03A200F000FA0DF20CFF30080025
:0C03AC000000000000000000000008003D
:1003B800243083120313FC00B530FD00FD0BE22945
:0A03C800FC0BE22900000000080011
:1003D200A0017208031DFE297108F2007008F100E5
:1003E200F001A0157208031DFE297108F200F10147
:1003F200A0112016720803190C2A2008F302031D0B
:10040200031C102A0310F21B142AF00DF10DF20D39
:10041200F30B042A102A0130FC008C21172A023027
:0E042200FC008021172A0430FC007C21080019
:1004300083120313B201B301B701B8016208F000DF
:100440006308F100E20A0319E30A7008AC007108BE
:10045000AD0003208A110A12F0007008B60070087F
:100460000319B52E3608253A03193F2A610884007E
:1004700036088000E10AB20A0319B30A1E2AB00145
:10048000B101B701B8016208E9006308EA0015216B
:100490007008E2007108E3007008AC007108AD005C
:1004A00003208A110A12F0000030F1007008E90000
:1004B000B021700803198E2AB001B1013008F00094
:1004C0003108F1000A30F4000030F5000A2062081B
:1004D000AC006308AD0003208A110A12F200720812
:1004E0007007B00071080318013EB1003030B0024F
:1004F000031CB103E20A0319E30A6208AC006308B3
:10050000AD0003208A110A12F0000030F1007008DB
:10051000E900B0217008031D5E2AB12A6208AC0010
:100520006308AD0003208A110A12F10071082A3A0B
:10053000031DB12A640884000008F00070088400DC
:100540000008B000840A0008B1006408840002308A
:100550000007F0006408840070088000E20A0319B4
:10056000E30A6208AC006308AD0003208A110A1296
:10057000F10071082E3A031D172BE20A0319E30A52
:100580006208AC006308AD0003208A110A12F10072
:1005900071082A3A031DE42A640884000008F00068
:1005A000700884000008B400840A0008B5006408DC
:1005B000840002300007F0006408840070088000A6
:1005C000E20A0319E30A162BB401B5016208AC0074
:1005D0006308AD0003208A110A12F0000030F10018
:1005E0007008E900B02170080319162B3408F000D8
:1005F0003508F1000A30F4000030F5000A206208E6
:10060000AC006308AD0003208A110A12F2007208E0
:100610007007B40071080318013EB5003030B40211
:10062000031CB503E20A0319E30AE62A192BB401F5
:10063000B5016208F0006308F100E20A0319E30A59
:100640007008AC007108AD0003208A110A12B600D0
:10065000F12B3208F0003308F100B92E3717222CA5
:10066000222CB716B717222C640884000008F0006B
:10067000700884000008E50064088400000AF000A7
:1006800064088400700880006508003A031D4A2B46
:100690002130E500E601E7016608650784000008EF
:1006A00003195F2B6608013EF00000300318013E7D
:1006B0006707F1007008E6007108E7004C2B34086A
:1006C000350403196F2B67083502031D692B660873
:1006D000340203186F2B3408E6003508E7003108B0
:1006E0006702031D752B3008660203187E2B66080F
:1006F000B002031CB1036708B102802BB001B10145
:10070000B719972B3008F0003108F1000130B00222
:10071000031CB103700871040319972B610884004E
:1007200020308000E10AB20A0319B30A822B66085E
:10073000F2006708F30001306602F0000030031C8D
:10074000013E6702F1007008E6007108E7007208D8
:1007500073040319BC2B650884000008F0006108CD
:10076000840070088000E10A650AF0007008E50066
:10077000B20A0319B30A972BB71DD32B3008F00028
:100780003108F1000130B002031CB103700871049C
:100790000319D32B6108840020308000E10AB20ADB
:1007A0000319B30ABE2B1E2A640884000008F00057
:1007B000700884000008B600640884000230000756
:1007C000F00064088400700880003630E5000130D5
:1007D000E6000030E7005F2BC030B7040030B804FB
:1007E000222C3608003A0319292B36086C3A0319D3
:1007F0002E2B36084C3A03192E2B36086F3A031964
:100800002E2B3608643A0319302B3608693A03193F
:10081000302B3608703A0319312B3608583A031931
:10082000312B3608783A0319322B3608733A0319FC
:10083000342B3608633A0319D42B3608753A03195A
:10084000EC2BE52BC0303705F1003808F200003002
:10085000F20500307206031D2F2C00307106031DB7
:10086000652C640884000008F0007008840000080B
:10087000F000840A0008F1007008E5007108E60045
:100880006408840002300007F000640884007008E7
:10089000800080306606F00080307002031D522C0C
:1008A000003065020318642C0330B7040030B8042C
:1008B0006508003CF0006608031C013EF101F102EE
:1008C0007008E5007108E6007D2C640884000008CB
:1008D000F000700884000008F000840A0008F100AD
:1008E0007008E5007108E600640884000230000723
:1008F000F000640884007008800000303506031D95
:10090000832C00303406031D902C00306606031D36
:100910008B2C00306506031D902CB40A0319B50A10
:10092000C0303705F0007008F4001D2D0130B6000E
:100930003608053A0319C22C3608F000F101F00D13
:10094000F10D7010E830F00709300318013EF1078F
:100950007008AC007108AD0003208A110A12F20081
:10096000AC0A0319AD0A03208A110A12F3007308B6
:100970006602031DBD2C720865020318C02CC22C30
:10098000B60A982C2D2D0130B6003608043A03190A
:10099000EF2C3608F000F101F00DF10D7010F2307F
:1009A000F00709300318013EF1077008AC00710828
:1009B000AD0003208A110A12F200AC0A0319AD0A35
:1009C00003208A110A12F30073086602031DEA2C41
:1009D000720865020318ED2CEF2CB60AC52C2D2DDC
:1009E0000130B6003608063A03191C2D3608F0000F
:1009F000F101F00DF10D7010DC30F0070930031833
:100A0000013EF1077008AC007108AD0003208A11A7
:100A10000A12F200AC0A0319AD0A03208A110A1265
:100A2000F30073086602031D172D72086502031890
:100A30001A2D1C2DB60AF22C2D2D7408003A03191C
:100A4000962C7408C03A0319962C7408803A03193E
:100A5000C32C7408403A0319F02C8030F000803029
:100A600035067002031D362D3408360203183B2D5F
:100A70003408B600492D80303506F0008030700211
:100A8000031D442D360834020318492D3608B400DE
:100A9000B5013008310403195C2D03303705F0002F
:100AA0003808F1000030F1057008710403195C2D5D
:100AB0000130B002031CB10380303506F0008030F5
:100AC00031067002031D662D3008340203186F2DA5
:100AD0003408B002031CB1033508B102712DB00116
:100AE000B101C4303705F10038080839F200720846
:100AF000083A031D7D2D40307106031D882D3008F6
:100B000031040319872D0130B002031CB103A82D55
:100B1000C0303705F10038080839F2007208083A89
:100B2000031D942D80307106031DA82D8030F00028
:100B3000803031067002031D9F2D3008023C0318DF
:100B4000A62D0230B002031CB103A82DB001B101E3
:100B50006108E90035207008E1003408F00035082C
:100B6000F1000130B402031CB503700871040319CD
:100B7000972EC0303705F0007008E8007E2E34084C
:100B8000F0003508F100F00DF10D7010E830F007BD
:100B900009300318013EF1077008AC007108AD0080
:100BA00003208A110A12F400AC0A0319AD0A0320CB
:100BB0008A110A12F5006508F0006608F100932119
:100BC0000A30F4000030F50093217808F00079082D
:100BD000F10030307007B6008E2EB71E232E340879
:100BE000F0003508F100F00DF10D7010F230F00753
:100BF00009300318013EF1077008AC007108AD0020
:100C000003208A110A12F400AC0A0319AD0A03206A
:100C10008A110A12F5006508F0006608F1009321B8
:100C20000F30F0050030F105BA30F0070930031835
:100C3000013EF1077008AC007108AD0003208A1175
:100C40000A12B600562E3408F0003508F100F00DF7
:100C5000F10D7010F230F00709300318013EF10772
:100C60007008AC007108AD0003208A110A12F4006C
:100C7000AC0A0319AD0A03208A110A12F5006508AF
:100C8000F0006608F10093210F30F0050030F10507
:100C9000CB30F00709300318013EF1077008AC00B3
:100CA0007108AD0003208A110A12B6008E2E340896
:100CB000F0003508F100F00DF10D7010DC30F00798
:100CC00009300318013EF1077008AC007108AD004F
:100CD00003208A110A12F400AC0A0319AD0A03209A
:100CE0008A110A12F5006508F0006608F1009321E8
:100CF00007307005B6003030B6078E2E6808003A0F
:100D00000319BF2D6808C03A0319BF2D6808803A3F
:100D10000319ED2D6808403A0319572E6108840025
:100D200036088000E10AB20A0319B30AAD2DB71DD7
:100D3000B42E8030F000803031067002031DA22EE8
:100D40003008003C0318B42E610884002030800075
:100D5000E10AB20A0319B30A0130B002031CB1035D
:100D600030083104031DA42E1E2A3208F000330877
:040D7000F100080086
:100D7400243083120313FD00FD0BBE2E0000080077
:060D8400FB15FF30080022
:100D8A00FB14FB1FCF2EFF30F300F200F100F0003E
:080D9A00FA0DF20CFF30080015
:100DA2008316031388110811081288120813881376
:100DB2008312881108118813081388120812DC2183
:100DC200DC21DC21881608168815D6218811DC2141
:100DD2008815D6218811DC218815D6218811DC21BD
:100DE20008128815D6218811DC218815D621881190
:100DF200881288178815D6218811DC2188130816D5
:100E02008815D621881108128815D6218811DC216F
:100E12008815D621881108168815D6218811DC215B
:100E220008128815D62188118817081788160816FF
:0C0E32008815D6218811DC214F1408001F
:100E3E0083120313FB01730803195C2F7208FA0067
:100E4E00F2178E30F302F31F5F2FF309F30A083007
:100E5E007302031C422FF300F10D7208F100F20130
:100E6E0008307302031C422FF300F10DF1017308D9
:100E7E00031D03104A2F730803194A2F0310F20C97
:100E8E00F10CF30B452F7B1B711C542F031C542F9D
:100E9E00F10A0319F20AF21B6B2FFA1F6E2FF209D9
:100EAE00F109F10A0319F20A6E2FF201F1016E2F08
:100EBE007B14FB1F712FF201FA1F712FFF30F2000E
:100ECE00F100FA0DF20C712F0130FC00732F00307F
:100EDE00FC00732FFF30FC00FC080319772FC9218B
:0A0EEE007108F0007208F10008001E
:100EF800FF3083120313D000FF30D100FF30D2003F
:100F0800FF309F01C0309F0483161F179F1783125D
:040F18001F1408009A
:100F1C008316031398169030831298008316871744
:100F2C00071383128C1E9D2F1A08F000972F0800B0
:100F3C00831203139F01C0309F0483161F179F1742
:100F4C0083125308F000F00D7010F00D7010F00DBE
:100F5C00701070089F041F14BA261F151F1DB82F80
:100F6C000000B42F1F101E08F100F00183161E089C
:080F7C00F0040030F10408004C
:100F840003208A110A128000840AAC0A0319AD0AEC
:080F9400F003031DC22F080049
:100F9C00563083120313E0005308E1005408E200BA
:100FAC005508E3006030E40018227008DE00710878
:100FBC00DF0070085307840080015E08F0005F08B2
:040FCC00F100080028
:10100000831203137408003A031D1B287508003A65
:10101000031D1B287608003A031D1B287708003A99
:10102000031D1B28FF30F000FF30F1007F30F2007D
:10103000FF30F300BE288312031377080319AA2890
:1010400073080319AF28720876068039FA00F21780
:10105000F617A0017208F8007108FC007008FD0086
:101060007408FD027508031C750FFC027608031C4A
:10107000760FF802F801FC01FD01031C462803105D
:10108000F20CF10CF00CF80C0130A0007708F30220
:10109000031C50287E302007F3070318B428552876
:1010A0007E302007F307031CB9281830FA07FD0D1E
:1010B000FC0DF80DF00DF10DF20DA00D7408F0020D
:1010C0007508031C750FF1027608031C760FF202F7
:1010D000760DA004201C6E287D1479287408F00772
:1010E00075080318750FF10776080318760AF207DA
:1010F0007D10FA031F307A05031D57287B1B7D1CCA
:10110000A0280310F00DF10DF20DA00D7408F002EF
:101110007508031C750FF1027608031C760FF202A6
:10112000760D20040139FD070318FC0A0319F80A9B
:10113000031DA028F80CFC0CFD0CF30A0319B428BD
:10114000FA1FF8137808F2007C08F1007D08F0001F
:101150000030BD2801308A11C2268A15BD28023010
:101160008A118C218A15BD2804308A11C5268A155A
:0E117000BD2808308A1180218A150000080071
:10117E0083120313D501530884000008D4005408C9
:10118E00003A0319D6285408E1008A11BF218A15A6
:10119E00D50A5508530784000008D400C628080055
:1011AE00831203137008F8007108F000F101F201C8
:1011BE00F301FB01FC019630F300FA01F01FED285C
:1011CE00F809F009F80A0319F00AFA177008F10085
:1011DE007808F000F801F2018A11E9218A15080059
:1011EE000222831603139F018601FF3087008312AC
:1011FE0086018A117C278A158A11D1268A1581309B
:10120E008316990018158A118E278A150230FB0055
:10121E004530FC00A930FD00FD0B1329FC0B1329F2
:10122E00FB0B132900000000D3018A119E278A159B
:10123E0070088312AA007108AB00D7200A30F400A0
:10124E00D730F5000330F6008030F70000208A1109
:10125E001F278A157008AA007108AB000130D30051
:10126E008A119E278A1570088312A8007108A9009A
:10127E00D7200A30F400D730F5000330F600803066
:10128E00F70000208A111F278A157008A800710820
:10129E00A9000230D3008A119E278A157008831286
:1012AE00AE007108AF00D7200A30F400D730F50039
:1012BE000330F6008030F70000208A111F278A15B0
:1012CE007008AE007108AF000330D3008A119E275C
:1012DE008A1570088312CD007108CE00D7200A300F
:1012EE00F400D730F5000330F6008030F700002010
:1012FE008A111F278A157008CD007108CE0039306B
:10130E00D300E830D4000730D5002A08D6002B08C9
:10131E00D7002808D8002908D9002E08DA002F088F
:10132E00DB007008DC007108DD008A11CE278A15FB
:10133E003930D300BF202630D300BF200630FB004B
:10134E001330FC00AD30FD00FD0BAB29FC0BAB29BF
:0C135E00FB0BAB29000000001B29B42988
:1014040021308400073083120313F000FA30AC005B
:0C1414000930AD008A11C2278A150800BB
:100FD00025343034333464342A34253430343334D3
:100FE00064342A3425343034333464342A34253498
:080FF000303433346434003462
:10137400303431343234333434343534363437342D
:1013840038343934413442344334443445344634B3
:02139400003423
:10139600303431343234333434343534363437340B
:1013A60038343934613462346334643465346634D1
:0213B600003401
:1013B800013400340834003440340034003402343A
:0813C8000034103400348034BD
:1013D000013400340A34003464340034E834033413
:0413E000103427346A
:1013E4000134003410340034003401340034103437
:0A13F4006E3475346C346C34003430
:0413FE000A34003479
:02400E007A3BFB
:00000001FF
