:040000006DEF0BF0A5
:1000080000C01AF001C019F002C018F003C017F0C0
:1000180004C016F005C015F0E1CF21F0E2CF22F0C0
:10002800E9CF1FF0EACF20F0F5CF1EF0F8CF1BF094
:10003800F7CF1CF0F6CF1DF0C9EC0AF01EC0F5FF93
:100048001BC0F8FF1CC0F7FF1DC0F6FF1AC000F068
:1000580019C001F018C002F017C003F016C004F070
:1000680015C005F01FC0E9FF20C0EAFF21C0E1FF6D
:0600780022C0E2FF1100AE
:10007E00000E056E040E066E87C003F0000E046EB1
:10008E0003360436039003360436039088C000F01E
:10009E00000E016E0036013600900050032601500E
:1000AE00042203C001F004C002F0013601900236B2
:1000BE0001360190023601C003F002C004F0043292
:1000CE000332049E04BC048E04320332049E04BC2C
:1000DE00048E03C000F004C001F00036009001361B
:1000EE00003600900136055000260650012200C051
:1000FE0005F001C006F000C0E1FF01C0E2FFE69E80
:10010E0000018851000A12E187C000F0000E016E56
:10011E00003600900136370E0024E16E000E0120ED
:10012E00E26E05C0E6FF06C0E6FF11D087C000F004
:10013E00000E016E0036009001363B0E0024E16E7B
:10014E00000E0120E26E05C0E6FF06C0E6FF05C008
:10015E00E1FF06C0E2FFE69C040E0524E16E000EF0
:08016E000620E26EE68C12008F
:0E017600800E00018711006E00C061F01200C3
:1001840087C05EF088C05FF089C062F08AC063F007
:10019400800E00018B11006E008000C061F012001F
:1001A40087C05EF088C05FF089C060F08AC062F0EA
:1001B4008BC063F0800E00018C11006E00C061F0F2
:0201C400120027
:1001C60020C401F01F0E01160150010A01E08BD078
:1001D60004012451000A01E086D02151060A38E1C3
:1001E6002DD05C50010A13E1F00E0001876F170E47
:1001F600886F000E896F120E8727000E88238923C9
:10020600090E8A6F000E8B6F400E8C6FC8DF20D0F0
:100216005C50010A0EE10001190E876F180E886FF7
:10022600000E896F210E8A6F000E8B6F400E8C6F49
:10023600B6DF0ED00001876B9BDF0AD00401235185
:10024600210ACFE02351220AE3E02351230AF2E0F8
:1002560020C401F0600E0116050E006E005004E089
:100266000132019EFF0FFBD70150010A01E03BD08E
:1002760027D039D038D0350E0001876F000E886F31
:10028600010E896F000E8A6F400E8B6F78DF2BD0C0
:100296000001876B6DDF23C435F025D00001360ED3
:1002A600876F000E886F010E896F000E8A6F8B6B49
:1002B60066DF19D00001876B5BDF22C436F013D0EE
:1002C60004012151010AD5E02151090AD3E0215147
:1002D600020AD1E021510A0ADBE02151030ADEE0DD
:0802E60021510B0AE7E01200B0
:1002EE00700EE16E0F0EE26E00018251E126D8B063
:1002FE00E22A83C0E6FF83A504D082C087F0886B14
:10030E00B7DE83A305D082C087F0010E886FB0DE02
:02031E001200CB
:1003200000018351000A12E082C000F0000E016E4D
:100330000036009001363B0E0024E96E000E0120CD
:10034000EA6EEECF04F0EECF05F011D082C000F0DF
:10035000000E016E003600900136370E0024E96E63
:10036000000E0120EA6EEECF04F0EECF05F0020E93
:100370000424E16E000E0520E26E84C0E6FF85C015
:10038000E6FF010E0424E16E000E0520E26E86C039
:10039000E6FF04C0E9FF05C0EAFFEECF00F004C0AD
:1003A000E1FF05C0E2FF400E0014E66E04C0E9FF65
:1003B00005C0EAFFEECF00F004C0E1FF05C0E2FF98
:1003C000880E0010E66E8351000A1BE082C000F028
:1003D000000E016E0036009001363B0E0024026EC6
:1003E000000E0120036E02C0E9FF03C0EAFF040E05
:1003F000EE18006E02C0E1FF03C0E2FF00C0E6FF9E
:100400001AD082C000F0000E016E00360090013656
:10041000370E0024026E000E0120036E02C0E9FFB9
:1004200003C0EAFF040EEE18006E02C0E1FF03C035
:10043000E2FF00C0E6FF04C000F005C001F01200BA
:100440005D5215E0010E0001826F1E0E836F4FDFBB
:10045000010E826F836B67C084F068C085F0400E28
:10046000866F5EDF00C02FF001C030F014D00001B5
:10047000010E826F1E0E836F3ADF010E826F836B57
:1004800067C084F068C085F0400E866F49DF00C009
:080490002FF001C030F0120052
:080498005D5201E094DE120048
:1004A0007CC002F07DC003F07FC000F080C001F08E
:1004B000010E00017F5F000E805B0050011009E01B
:1004C00002C0E1FF03C0E2FF7EC0E6FF024A032A4A
:0404D000EBD7120054
:1004D4000CD0B4DF3CD03BD0DDDF39D038D037D0BE
:1004E40036D035D0000033D032D0000E00017D1953
:1004F40002E1010E7C19EDE0000E7D1902E1020E0D
:100504007C19E9E0000E7D1902E1030E7C19E4E098
:100514007D51000A02E1730E7C19E0E07D51000A6E
:1005240002E1750E7C19DBE07D51000A02E1740ED4
:100534007C19D6E07D513F0A02E1FF0E7C19D1E01F
:100544007D51000A02E1720E7C19CCE0CDD7010E78
:04055400006E120023
:100558000B6A0A6A096A00500402F4CF09F0F3CF63
:1005680008F001500502F4CF0BF0F3CF0AF0005069
:100578000502F3500926F4500A22E86A0B220150BA
:100588000402F3500926F4500A22E86A0B2208C034
:1005980000F009C001F00AC002F00BC003F012001D
:1005A8000401286B296B48D00001618F0401288160
:1005B8003250010AD8B4288354D00001618F51D039
:1005C8000001618F040124BF16D024C403F00F0E6C
:1005D800031603C000F0000E016E003600900136CD
:1005E800370E0024E96E000E0120EA6EEECF04F00B
:1005F800EECF05F015D024C403F00F0E031603C088
:1006080000F0000E016E0036009001363B0E00240B
:10061800E96E000E0120EA6EEECF04F0EECF05F091
:1006280004C0E9FF05C0EAFFEECF01F001A403D042
:100638000401010E286F15D020C401F01F0E011609
:100648000150000AB1E020C401F01F0E011601504C
:10065800010AB3E020C401F01F0E01160150020A7E
:10066800AFE0000161AF07D0280E5E6E040E5F6E2A
:080678006181020E626F1200A5
:1006800004012251010A11E120C401F01F0E0116DC
:100690000150000A0AE10001618F04012151030A9F
:1006A00003E1010E326E01D0326A2251000AD8A451
:1006B0008BD020C401F01F0E01160150020AD8A4ED
:1006C00083D024C401F00F0E01160150000AD8B4E3
:1006D0007BD00001618F040124BF16D024C403F035
:1006E0000F0E031603C000F0000E016E00360090DE
:1006F0000136370E0024E96E000E0120EA6EEECFBF
:1007000004F0EECF05F015D024C403F00F0E03164D
:1007100003C000F0000E016E0036009001363B0E63
:100720000024E96E000E0120EA6EEECF04F0EECF59
:1007300005F02151030A07E104C0E1FF05C0E2FF13
:10074000840EE66E41D024C400F00F0E0016700E29
:10075000026E0F0E036E00500226D8B0032A02C0AC
:10076000E9FF03C0EAFFEECF00F0EECF01F000900A
:1007700002C0E1FF03C0E2FF00C0E6FF01C0E6FFE8
:1007800024AF11D004C0E1FF05C0E2FFE66A040E09
:100790000418006E00C004F004C0E1FF05C0E2FFD1
:1007A000400EE66E11D004C0E1FF05C0E2FF880EE6
:1007B000E66E040E0418006E00C004F004C0E1FFF1
:0A07C00005C0E2FFC80EE66E12004D
:1007CA00000E0001635D02E1080E625D10E262C084
:1007DA0003F063C004F03150000A03E1010E316EE8
:1007EA0005D03150010A02E1020E316E04D0080E22
:1007FA00036E000E046E00013BC0E1FF3CC0E2FF45
:10080A00E6923BC0E1FF3CC0E2FFE6903BC0E9FF55
:10081A003CC0EAFFEECF00F03BC0E1FF3CC0E2FF84
:10082A0004500010E66E010E3B24E16E000E3C20DF
:10083A00E26E03C0E6FF0350625D006E0450635926
:10084A00016E00C062F001C063F0280E2D6E040E26
:10085A002E6E61B12FD0035004102BE05EC0F6FF5C
:10086A005FC0F7FF60C0F8FF0900F5CF00F02DC0A8
:10087A00E1FF2EC0E2FF00C0E6FF2D4A2E2A010E3C
:10088A005E24006E000E5F20016E000E6021026E73
:10089A0000C05EF001C05FF002C060F0010E035CB0
:1008AA00006E000E0458016E00C003F001C004F08F
:1008BA00D2D724D00350041021E05EC0E9FF5FC004
:1008CA00EAFF2DC0E1FF2EC0E2FFEECFE6FF2D4A80
:1008DA002E2A010E5E24006E000E5F20016E00C0FB
:1008EA005EF001C05FF0010E035C006E000E04585A
:0E08FA00016E00C003F001C004F0DCD7120054
:10090800F250026EF29E0500FF6A0150FE6E005022
:08091800FD6E02BEF28E12001A
:100920000001618F710E7C6F0F0E7D6F7E6B010E6B
:100930007F6F000E806FB4DD640E7C6F000E7D6FE4
:100940007E6B010E7F6F000E806FAADD22C45CF00B
:100950005C50000A03E1100E4D6E0FD0200E4D6E5C
:10096000010E7C6F000E7D6F5C0E7E6F000E7F6F40
:0C097000010E806F000E816FADDD1200E3
:10097C0004012051800AD8A479D0C00E0001616F07
:10098C006AD000013A0E006E180E016E000E026E57
:10099C0000C05EF001C05FF002C060F0120E626F2A
:1009AC00000E636F63D00001030E006E000E016E2B
:1009BC0022C404F0000E056EC9DD4A0E0024E96E57
:1009CC00000E0120EA6EEECF5EF0EECF5FF0EECFC0
:1009DC0060F0020E5E24F66E000E5F20F76E000EC5
:1009EC006021F86E0900F5CF00F00900F5CF01F099
:1009FC0000C062F001C063F039D0030E0401225D27
:100A0C0024E2030E006E000E016E22C404F0000EF0
:100A1C00056E9CDD410E0024E96E000E0120EA6E8D
:100A2C00EECF5EF0EECF5FF0EECF60F05EC0F6FF83
:100A3C005FC0F7FF60C0F8FF0900F5CF00F000C001
:100A4C0062F0000E0001636F02D00001616B0ED0EA
:100A5C000001616B0BD004012351010A92E0235178
:0E0A6C00020AA1E02351030AC8E0F2D71200EB
:100A7A0020C401F0600E0116050E006E005004E05D
:100A8A000132019EFF0FFBD70150000A01E067D037
:100A9A0043D00001618F080E4D6E61D06ADF5FD0CE
:100AAA003ADF5DD05C0E5E6E000E5F6E0001618102
:100ABA00010E626F618F53D072DD51D0DCDD4FD0F1
:100ACA00640E006E000E016E24510026D8B0012A71
:100ADA0000C05EF001C05FF000016181010E626F2B
:100AEA00618F3DD00001618F640EE16E000EE26EEF
:100AFA0004012451E126D8B0E22A22C4E6FF2FD00D
:100B0A00020E00017C6F000E7D6F7E6B7F6B806B27
:100B1A00816BDBDC24D023D004012151050AB9E022
:100B2A002151060ABBE02151090ABAE02151080AFB
:100B3A00B9E02151000AC0E02151010ABFE0215168
:100B4A00030ABCE021510A0ABBE021510B0ACAE0A0
:100B5A002151070AD5E021510C0ADDE0DCD7120049
:100B6A00010E3F24E96E000E4020EA6EEECF00F03F
:100B7A0000C07AF0000E575C03E100017A51565C1E
:100B8A0003E256C07AF00BD000017A51565C006E2F
:100B9A00000E5758016E00C056F001C057F0000110
:100BAA007B6B7A517B5D1CE2280EE96E040EEA6EBD
:100BBA007B51E926D8B0EA2AEECF00F053C0E1FF14
:100BCA0054C0E2FF00C0E6FF010E5324006E000E7F
:100BDA005420016E00C053F001C054F07B2BE1D7C2
:100BEA00000E006E5750005C02E15650000828E2E1
:100BFA00010E2324E16E000E2420E26E080EE66E3A
:100C0A00020E2324E16E000E2420E26E280EE66E08
:100C1A00040EE66E3FC0E9FF40C0EAFFEECF00F0E7
:100C2A0000BC07D023C0E1FF24C0E2FFC80EE66E75
:100C3A0006D023C0E1FF24C0E2FF880EE66E2BD067
:100C4A00010E2324E16E000E2420E26E080EE66EE9
:100C5A00020E2324E16E000E2420E26E200EE66EC0
:100C6A00040EE66E23C0E1FF24C0E2FF840EE66EA6
:100C7A00000E006E5B1808E100505A1805E100509A
:100C8A00591802E15850000A05E058C000F059C04E
:080C9A0001F035DE559E120049
:100CA200256A3BC0E1FF3CC0E2FFE66A040E3B1846
:100CB200E16E3CC0E2FF000EE21AE66A55AE13D0C6
:100CC200000E006E5B1808E100505A1805E1005052
:100CD200591802E15850000A05E058C000F059C006
:080CE20001F011DE559E120025
:100CEA006D98000161BF49D055AE28D0020E256E1D
:100CFA00010E3B24E16E000E3C20E26EE66A3BC028
:100D0A00E1FF3CC0E2FFC80EE66E010E2324E16E4D
:100D1A00000E2420E26E080EE66E020E2324E16E17
:100D2A00000E2420E26E280EE66E040EE66E23C044
:100D3A00E1FF24C0E2FFC80EE66E1ED0010E232496
:100D4A00E16E000E2420E26E080EE66E020E2324E7
:100D5A00E16E000E2420E26E200EE66E040EE66EB0
:100D6A0023C0E1FF24C0E2FF8C0EE66E3BC0E1FF28
:100D7A003CC0E2FF840EE66E81D055BE7FD00401EE
:100D8A0020AF55D0000163510401275D04E1000141
:100D9A0062510401265D04E226C462F027C463F0AE
:100DAA000FDD010E256E010E2324E16E000E2420B4
:100DBA00E26E080EE66E020E2324E16E000E242077
:100DCA00E26E200EE66E040EE66E23C0E1FF24C03A
:100DDA00E2FF800EE66E2C6A010E3F24E16E000EE1
:100DEA004020E26E080EE66E020E3F24E16E000E0F
:100DFA004020E26E200EE66E040EE66E3FC0E1FF72
:100E0A0040C0E2FF840EE66E010E2C6E020E3B24F9
:100E1A00E16E000E3C20E26E280EE66E040EE66ECF
:100E2A003BC0E1FF3CC0E2FFC80EE66E27D0020ECF
:100E3A00256E010E3B24E16E000E3C20E26EE66A4E
:100E4A003BC0E1FF3CC0E2FFC80EE66E010E232460
:100E5A00E16E000E2420E26E080EE66E020E2324D6
:100E6A00E16E000E2420E26E280EE66E040EE66E97
:0E0E7A0023C0E1FF24C0E2FFC80EE66E1200A6
:100E88003BC0E9FF3CC0EAFFEECF00F000AE05D062
:100E98003BC0E1FF3CC0E2FFE66A316A256A000117
:100EA800626B636B616BE5DD030E00017C6F000E06
:100EB8007D6F7E6B7F6B806B816B6AEC02F011DF5C
:020EC800120016
:100ECA003BC0E9FF3CC0EAFFEECF00F0000E00BCD9
:100EDA00010E0001796F040E3B18006E00C03BF052
:100EEA004D50080A0AE122C46EFF6E50000803E260
:100EFA00100E4D6E02D0040E4D6E2550010A2BE1E4
:100F0A00020E3B24E16E000E3C20E26E280E006EBB
:100F1A00040E016E00C0E6FF01C0E6FF51DC31504D
:100F2A00020A07E13BC0E1FF3CC0E2FF840EE66E25
:100F3A0011D000017951000A07E13BC0E1FF3CC032
:100F4A00E2FFC80EE66E06D03BC0E1FF3CC0E2FFFE
:0A0F5A00880EE66E01D0A0DE120042
:100F64002550020A02E1FFDD1ED099DE2C50000A52
:100F740019E1010E2324E16E000E2420E26E080E16
:100F8400E66E020E2324E16E000E2420E26E200E93
:100F9400E66E040EE66E23C0E1FF24C0E2FF8C0E71
:080FA400E66E01D02C6A120078
:0A0FAC00D08EA28AA08AF28E1200F5
:100FB600000E0001731902E1000E721902E1016AC6
:100FC60009D072C0E9FF73C0EAFFEECF00F0016AF4
:0A0FD60000BE012A01C000F0120065
:100FE00072C002F073C003F075C000F076C001F06B
:100FF000010E0001755F000E765B0050011009E0E4
:1010000002C0E1FF03C0E2FF74C0E6FF024A032A08
:04101000EBD7120008
:10101400F00E4A6E170E4B6E000E4C6E4C0E416E67
:10102400180E426E000E436E900E446E170E456EFF
:10103400000E466EC20E476E170E486E000E496EC5
:02104400120098
:0E104600160E6F6E9F0E6B6E7B0E696E1200A3
:1010540000017351000A12E072C000F0000E016E2C
:101064000036009001363B0E0024E96E000E01208C
:10107400EA6EEECF04F0EECF05F011D072C000F0AE
:10108400000E016E003600900136370E0024E96E22
:10109400000E0120EA6EEECF04F0EECF05F0020E52
:1010A4000424E16E000E0520E26E74C0E6FF75C0F4
:1010B400E6FF010E0424E16E000E0520E26E76C008
:1010C400E6FF04C0E9FF05C0EAFFEECF00F004C06C
:1010D400E1FF05C0E2FF400E0014E66E04C0E9FF24
:1010E40005C0EAFFEECF00F004C0E1FF05C0E2FF57
:1010F400880E0010E66E7351000A1BE072C000F007
:10110400000E016E0036009001363B0E0024026E84
:10111400000E0120036E02C0E9FF03C0EAFF040EC3
:10112400EE18006E02C0E1FF03C0E2FF00C0E6FF5C
:101134001AD072C000F0000E016E00360090013625
:10114400370E0024026E000E0120036E02C0E9FF78
:1011540003C0EAFF040EEE18006E02C0E1FF03C0F4
:10116400E2FF00C0E6FF04C000F005C001F0120079
:10117400200E4D5C03E36DB201D002D0006A23D08F
:101184002FC072F030C073F014DF00521BE1010E67
:101194002F24E96E000E3020EA6EEECF00F000C07E
:1011A40071F070C072F0736B6DC074F06EC075F046
:1011B4006FC076F04DDF00C02FF001C030F071C079
:0811C40000F001D0006A1200E6
:0C11CC00240E0D6E0D2EFED70000120048
:1011D8001DDF2F6A306A266A276A6A6A686A2FDF03
:1011E8006D8C6E6A710E0001726F0F0E736F746BE7
:1011F800010E756F000E766FEFDE6D9C6D6B080E3D
:101208006D5D16E26DC000F0000E016E00360090B4
:101218000136003600900136000E0024E16E040EFF
:101228000120E26EE66AE66AE66AE66A6D2BE7D7AF
:10123800160E706E68A603D0F70E6816FBD7616BA2
:10124800556A566A576A6D98080E3B6E040E3C6ED6
:061258005C6A4D6A120001
:10125E00200E4D5C03E36DB201D002D0006A33D094
:10126E0026C072F027C073F09FDE00522BE170C0D3
:10127E0072F0010E736F6DC074F06EC075F06FC0BA
:10128E0076F0E1DE00C026F001C027F0286A296A58
:10129E002A6A2B6A26C072F027C073F085DE0052D0
:1012AE0008E0285029102A102B1002E0006A0BD0FB
:1012BE00F1D7010E2624E96E000E2720EA6EEECF3E
:0812CE0000F001D0006A1200DB
:1012D6004D50000A0AE16D6A696AB2DE64DE6DB6D7
:0C12E60002D06D86FCD7010E4D6E120088
:0412F200A19A1200AB
:1012F6006984EF0E68166D82750E00017C6F000E14
:101306007D6F7E6B7F6B806B816B6AEC02F01200E7
:1013160070A019D03FC0E9FF40C0EAFFEECF01F050
:101326000150800A0FE13BC0E9FF3CC0EAFFEECF67
:1013360001F00150840A06E13FC0E1FF40C0E2FF30
:0C1346008C0EE66E7090DF0E6816120030
:10135200FD0E5214016E026AFF0E0216000E0218F2
:1013620002E1000E01186CE17E0E5214016E01C002
:1013720003F00332039E03C000F0000E016E00363C
:1013820000900136003600900136000E0024026EF5
:10139200040E0120036E02C03FF003C040F002C001
:1013A20023F003C024F0040E2318006E00C023F0C3
:1013B20002C0E9FF03C0EAFFEECF00F000C001F077
:1013C2003C0E01160132019E0132019E01500D0AAE
:1013D20035E1020E3F24E96E000E4020EA6EEECFA8
:1013E20001F0EECF02F00250040A02E1280E0118C9
:1013F20023E1020E3F24E16E000E4020E26E200E39
:10140200E66E040EE66E0001786B080E785D14E25B
:10141200200EE16E040EE26E7851E126D8B0E22A87
:10142200280EE96E040EEA6E7851E926D8B0EA2A4F
:10143200EECFE6FF782BE9D726DD01D092DD0DD085
:10144200FD0E5214016E026AFF0E0216000E021801
:0C14520002E1040E011801E137DD120078
:10145E00740E00017C6F000E7D6F7E6B7F6B806B58
:10146E00816B6AEC02F06D92699468A403D0FB0E56
:06147E006816FBD7120006
:10148400C7DD2F6A306A266A276A6A6A686AD9DD04
:101494006D8C6E6A710E00017C6F0F0E7D6F7E6B1A
:1014A400010E7F6F000E806F50EC02F06D9C786B24
:1014B400080E785D16E278C000F0000E016E00366A
:1014C40000900136003600900136000E0024E16ED3
:1014D400040E0120E26EE66AE66AE66AE66A782BA2
:1014E400E7D7160E706E68A603D0F70E6816FBD702
:1014F400616B556A566A576A6D98080E3B6E040E06
:081504003C6E5C6A4D6A1200A6
:10150C00C26A070EC012C08E69C000F0003600908F
:10151C00003600900050C212C28052DEC282C2A2BB
:10152C0001D0FDD7C4CF01F0006AC3500012000EE9
:06153C000112C290120032
:10154200FF0E4E6EFF0E4F6EFF0E506EFF0E516E6F
:0C155200C26A070EC012C08EC2801200D8
:10155E00010E5D6E69C067F06AC068F06BC065F021
:10156E006CC066F032DE010E016E0150010A01E11F
:04157E00ABDE1200CE
:101582000900F5CFE6FF0006FBE10106F9E11200D2
:101592004D50010A07E16DBA05D0686A6980698811
:1015A200020E4D6E68A405D069A403D0FB0E681626
:1015B20055DF6DA202D09CDE78D068A018D069A059
:1015C20016D05FDF040E4D6E200E0401026F040E72
:1015D200036F080E016F000E0015006E00C000F4CC
:1015E2008C0E0011006E00C000F4FE0E681668A892
:1015F20005D069A803D07EDEEF0E681668AC11D064
:1016020069AC0FD0730E00017C6F000E7D6F7E6B94
:101612007F6B010E806F000E816F6AEC02F0BF0ECD
:10162200681668AA03D069AA01D074DE68A210D035
:1016320069A20ED0FF0E00017C6F3F0E7D6F7E6BA4
:101642007F6B010E806F000E816F6AEC02F06A6A96
:10165200040E4D5C02E24CDE28D069A625D00001C2
:10166200776B040E775D20E268A61AD06CCF52F039
:10167200F70E6816780E5214016E0150000A02E14C
:1016820067DE0DD0720E00017C6F000E7D6F520E70
:101692007E6F000E7F6F806B816B6AEC02F001D06F
:0C16A20003D00001772BDDD723DE1200FF
:1016AE0067C06DF068C06EF0400E00016F6F010EE6
:0616BE00706F59DD1200FF
:1016C40069C06DF06AC06EF06BC06FF0010E00016E
:0616D400706FC3DD12007F
:1016DA00C16A070EB41294908290949282922CDF7F
:1016EA00000E0001696F050E6A6F400E6B6F050EE2
:1016FA006C6F30DFD7DF005216E005013E51010A58
:10170A0002E182803E6B3F51010A02E182903F6B07
:10171A003C51010A02E18282406B3D51010A02E119
:10172A008292416B2ED0040E0001696FEADE00C07E
:10173A0033F001C034F000C003F001C004F00432F9
:10174A000332049E03C033F004C034F003C04BF5E7
:10175A0004C000F0016A00C04CF5400E0001696F38
:10176A00050E6A6F400E6B6FA8DF005201E1F5D7D4
:10177A00210E0C6E760E0D6E0D2EFED70C2EFCD79A
:06178A000000B8D7FFD7F4
:10179000320341006F0079006F006E0020002D00C1
:1017A00020005300690064006500770069006E0046
:1017B0006400650052002700730020004C004100C7
:0217C0004200E5
:1017C2002E0341006F0079006F006E002700730046
:1017D20020002000550053004200200049004F0025
:0E17E200200044006500760069006300650089
:1017F00009022900010100803209040000020300EF
:101800000000092101010001222100070581034098
:091810000001070501034000017D
:101819000600FF0901A10119012940150026FF0051
:101829007508954081021901294075089540910272
:01183900C0EE
:10183A001201000200000008341201000100010236
:02184A0000019B
:04184C000403090484
:020000040030CA
:0E000000000C1F1EFF8381FF0FC00FE00F409A
:00000001FF
