:02000000272BAC
:0C000600000000000000000000000800E6
:10001200243083120313FC00B530FD00FD0B0F28C2
:0A002200FC0B0F280000000008008E
:0E002C00533083120313FD00FD0B1A28080049
:10003A0083120313E01B2328861324288617601BC8
:10004A002828061329280617E01A2D2886122E2892
:10005A008616601A32280612332806164E183728D2
:10006A00861538288611061503200611E0193F283F
:10007A008613402886176019442806134528061750
:10008A00E018492886124A28861660184E28061251
:10009A004F2806164E185328861554288611061519
:1000AA00032006114E1C5B2809205C281620080034
:1000BA00831603139818632800005D2883126008CA
:0400CA009900080091
:1000CE0083120313DF015D0884000008DE005E0862
:1000DE00003A03197C285E08E0005D20DF0A5F0805
:0C00EE005D0784000008DE006E2808009A
:1000FA00710DF80DF90D7408F8027508031C750FD7
:10010A00F902F00DF10D0F30FC00710DF80DF90D2B
:10011A007408701C9628F8027508031C750FF902FA
:10012A009B28F80775080318750FF907F00DF10DEC
:10013A00FC0B8A287018A7287408F8077508031892
:08014A00750FF9070000080021
:10015200831203134E105D08E0001D204E140800A8
:1001620083120313FB01FA01F9018030F800F10C4C
:10017200F00C031CC5287408F90775080318750FDD
:10018200FA070318FB0A0310F01FCD287408FA07B8
:1001920075080318750FFB07FB0CFA0CF90CF80C29
:1001A200031CB8287B08F3007A08F2007908F100F2
:0601B2007808F0000800CF
:1001B800831203137408003A031DEB287508003AEC
:1001C800031DEB28FF30F0007F30F1004429831233
:1001D8000313FD01F901F8017108700403190034D3
:1001E80071087506FA00FA1BFD09FB01F51F0129C4
:1001F800F409F509F40A0319F50AF11F0829F009A9
:10020800F109F00A0319F10A71087504FA00FA1BDA
:100218001D297D207B183029FD1F0034F009F109C4
:10022800F00A0319F10AF809F909F80A0319F90A91
:100238000034F51F2C29F11B28297108F9007008D2
:10024800F800F101F0011029F101F001F00A003481
:10025800F109F009FB0A0D29F80A0319F90A7408CB
:100268007802031D102975087902031D1029F90168
:10027800F801F00A0319F10AF11F10290000FF34F0
:0202880008006C
:0E028A008312031347088A004608820008000A
:10029800063083120313D1000030D2008030F00002
:1002A800803052067002031D5B2951080A3C031C6A
:1002B80067295108203E84000008E0005D20D10A2B
:1002C8000319D20A52297330E0005D200530D100AD
:1002D8000030D2008030F000803052067002031DDA
:1002E80077295108093C031C832951082C3E8400B6
:1002F8000008E0005D20D10A0319D20A6E293730C0
:06030800DD006720080083
:10030E009929803083120313D900AC29C030D9004B
:10031E00AC299430D900AC29D430D900AC29803026
:10032E00D900AC29831203135908013A03198829FD
:10033E005908023A03198D295908033A03199029CD
:10034E005908043A0319932996295A03F0005908BB
:10035E00F0077008D9007008E0001D204E10DC0177
:10036E005C085B07840000080319C5295C085B075D
:10037E0084000008DD00A920DC0AB7294E1408000D
:10038E00013083120313E0001D200A30F400003008
:10039E00F5005708F0005808F100DC207808F0004E
:1003AE007908F10030307007AA000A30F4000030EE
:1003BE00F5005708F0005808F100DC200A30F40070
:1003CE000030F500DC207808F0007908F1003030BC
:1003DE007007A9006430F4000030F5005708F000F3
:1003EE005808F100DC200A30F4000030F500DC2063
:1003FE007808F0007908F10030307007A800E83076
:10040E00F4000330F5005708F0005808F100DC2026
:10041E000A30F4000030F500DC207808F00079088E
:10042E00F10030307007A7001030F4002730F500CF
:10043E005708F0005808F100DC2030307007A60095
:10044E000A30F4000030F5005508F0005608F100AF
:10045E00DC207808F0007908F10030307007B50024
:10046E000A30F4000030F5005508F0005608F1008F
:10047E00DC200A30F4000030F500DC207808F000B3
:10048E007908F10030307007B4006430F4000030A9
:10049E00F5005508F0005608F100DC200A30F40093
:1004AE000030F500DC207808F0007908F1003030DB
:1004BE007007B300E830F4000330F5005508F00083
:1004CE005608F100DC200A30F4000030F500DC2084
:1004DE007808F0007908F10030307007B200103063
:1004EE00F4002730F5005508F0005608F100DC2026
:1004FE0030307007B1000130D9000130DA00203001
:10050E00DB0087210230D9000130DA002C30DB000D
:10051E0087210D30FB00AF30FC00B630FD00FD0B27
:10052E00962AFC0B962AFB0B962A0000D101D201CB
:04053E004C21080044
:10054200831203135508F0005608F100F00DF10D67
:04055200701008001D
:100556000F3083120313F0000030F1005508F40049
:100566005608F500B1205708F00758080318013E51
:04057600F107080081
:10057A0083160313981690308312980083168717F0
:10058A00071383128C1ECC2A1A08F000C62A080008
:10059A0045218A110A128000840AC60A0319C70A69
:0805AA00F003031DCD2A080037
:1005B200831603130611861106128612061386137A
:1005C200831206118611861306138612061209205B
:1005D2000920092086160616061503200611092091
:1005E200061503200611092006150320061109200D
:1005F200061206150320061109200615032006110E
:100602008612861706150320061109208613061680
:1006120006150320061106120615032006110920ED
:1006220006150320061106160615032006110920D9
:1006320006120615032006118617061786160616D9
:0C06420006150320061109204E140800C4
:10064E0026240630831603139F0081309900181557
:10065E00BD220330FB008A30FC005530FD00FD0B3F
:10066E00362BFC0B362BFB0B362B00000000D92251
:10067E000130E0001D200C30E0001D200130D900BB
:10068E000130DA003930DB0087213930DD00672098
:10069E002A30E0005D203330FB00BB30FC00DF3041
:1006AE00FD00FD0B582BFC0B582BFB0B582B0000A1
:1006BE0000000130E0001D200F30831687008312EA
:1006CE008701D301D4010430F0000708F100F201D4
:1006DE0070080319772BF10DF20D7110FF3E702B80
:1006EE007108CA007208CB0000307206031D812B00
:1006FE000F307106031D8F2B00305406031D892BFE
:10070E0000305306031D8F2B0130C8000030C90086
:10071E0000304B06031D952B01304A06031DD72BC7
:10072E0000304906031D9D2B01304806031DD72BB3
:10073E00D30A0319D40A5308D5005408D6004A0820
:10074E00D7004B08D800AB227008CC007108CD0042
:10075E007008D5007108D600A1227008CF0071086C
:10076E00D0007008D5007108D6004C08D7004D088F
:10077E00D800C7210430F0000708F100F20170081C
:10078E000319CE2BF10DF20D7110FF3EC72B003069
:10079E007206031DD42B01307106031DD72BC12BFE
:1007AE000708CA00CB015308D5005408D6004A08E2
:1007BE00D7004B08D800AB227008CC007108CD00D2
:1007CE007008D5007108D600A1227008CF007108FC
:1007DE00D0007008D5007108D6004C08D7004D081F
:0807EE00D800C7216A2BFA2B89
:10084C0020308400263083120313F0000030C600E1
:08085C000430C700CD220800A2
:1008000055346E346934743473343D343034303498
:08081000303430343034003480
:10081800423469346C346C343D34303430343034E0
:06082800303430340034CE
:04082E000A34003454
:1008320045346E34653472346734793420344D343F
:0A08420065347434653472340034F8
:02400E007A3BFB
:00000001FF
