:02000000B92A1B
:0E000600533083120313FD00FD0B0728080082
:10001400243083120313FC00B530FD00FD0B1028BF
:0A002400FC0B10280000000008008B
:0C002E00000000000000000000000800BE
:10003A0083120313DA1B23288613242886175A1BD4
:10004A002828061329280617DA1A2D2886122E2898
:10005A0086165A1A322806123328061650183728D6
:10006A00861538288611061517200611DA193F2831
:10007A008613402886175A19442806134528061756
:10008A00DA18492886124A2886165A184E2806125D
:10009A004F28061650185328861554288611061517
:1000AA0017200611501C5B280A205C280320080030
:1000BA008312031350105908DA001D205014080047
:1000CA00710DF80DF90D7408F8027508031C750F07
:1000DA00F902F00DF10D0F30FC00710DF80DF90D5C
:1000EA007408701C7E28F8027508031C750FF90243
:1000FA008328F80775080318750FF907F00DF10D35
:10010A00FC0B722870188F287408F80775080318F2
:08011A00750FF9070000080051
:0E0122008312031345088A0044088200080077
:1001300083120313FB01FA01F9018030F800F10C7E
:10014000F00C031CAC287408F90775080318750F28
:10015000FA070318FB0A0310F01FB4287408FA0703
:1001600075080318750FFB07FB0CFA0CF90CF80C5B
:10017000031C9F287B08F3007A08F2007908F1003D
:060180007808F000080001
:10018600831203137408003A031DD2287508003A37
:10019600031DD228FF30F0007F30F1002B29831297
:1001A6000313FD01F901F801710870040319003405
:1001B60071087506FA00FA1BFD09FB01F51FE82810
:1001C600F409F509F40A0319F50AF11FEF28F009F5
:1001D600F109F00A0319F10A71087504FA00FA1B0D
:1001E600042965207B181729FD1F0034F009F10941
:1001F600F00A0319F10AF809F909F80A0319F90AC4
:100206000034F51F1329F11B0F297108F900700836
:10021600F800F101F001F728F101F001F00A0034CD
:10022600F109F009FB0AF428F80A0319F90A740817
:100236007802031DF72875087902031DF728F901CE
:10024600F801F00A0319F10AF11FF7280000FF343C
:0202560008009E
:100258003E29803083120313D5005129C030D500C0
:1002680051299430D5005129D430D50051298030F6
:10027800D5005129831203135508013A03192D2972
:100288005508023A031932295508033A0319352942
:100298005508043A031938293B295603F000550834
:1002A800F0077008D5007008DA001D205010D8013A
:1002B800580857078400000803196A29580857077F
:1002C80084000008D9005D20D80A5C295014080071
:1002D800831203135108F0005208F100F00DF10DDC
:0402E800701008008A
:1002EC000F3083120313F0000030F1005108F400BA
:1002FC005208F50098205308F00754080318013EE3
:04030C00F1070800ED
:10031000013083120313DA001D200A30F40000308C
:10032000F5005308F0005408F100C3207808F000ED
:100330007908F10030307007B5000A30F400003061
:10034000F5005308F0005408F100C3200A30F4000F
:100350000030F500C3207808F0007908F100303053
:100360007007B4006430F4000030F5005308F0006A
:100370005408F100C3200A30F4000030F500C32017
:100380007808F0007908F10030307007B300E830E9
:10039000F4000330F5005308F0005408F100C320C6
:1003A0000A30F4000030F500C3207808F000790826
:1003B000F10030307007B2001030F4002730F50043
:1003C0005308F0005408F100C32030307007B1002A
:1003D0000A30F4000030F5005108F0005208F10036
:1003E000C3207808F0007908F10030307007A900C8
:1003F0000A30F4000030F5005108F0005208F10016
:10040000C3200A30F4000030F500C3207808F00063
:100410007908F10030307007A8006430F400003033
:10042000F5005108F0005208F100C3200A30F40032
:100430000030F500C3207808F0007908F100303072
:100440007007A700E830F4000330F5005108F00011
:100450005208F100C3200A30F4000030F500C32038
:100460007808F0007908F10030307007A6001030ED
:10047000F4002730F5005108F0005208F100C320C5
:1004800030307007A5000130D5000130D6002B3088
:10049000D7002C210230D5000130D6002030D70003
:1004A0002C210D30FB00AF30FC00B630FD00FD0B01
:0E04B000572AFC0B572AFB0B572A00000800A6
:1004BE00831603130611861106128612061386136F
:1004CE0083120611861186130613861206120A204F
:1004DE000A200A20861606160615172006110A206F
:1004EE000615172006110A200615172006110A20D8
:1004FE0006120615172006110A20061517200611DA
:10050E00861286170615172006110A208613061660
:10051E0006151720061106120615172006110A20B9
:10052E0006151720061106160615172006110A20A5
:10053E0006120615172006118617061786160616BA
:0C054E000615172006110A2050140800A2
:10055A0091208A110A128000840AC40A0319C50A62
:08056A00F003031DAD2A080097
:1005720086235F220130DA001D200C30DA001D20B4
:100582000130D5000130D6003730D7002C2133306E
:10059200FB00BB30FC00DF30FD00FD0BCE2AFC0B64
:1005A200CE2AFB0BCE2A000000000130DA001D200B
:1005B2000130D5000130D6002B30D7002C2102307B
:1005C200D5000130D6002030D7002C210F30831601
:1005D200870083128701C801C9010708C600C70145
:1005E20000304706031DF72A0F304606031D052B70
:1005F20000304906031DFF2A00304806031D052B63
:100602000130CA000030CB000708013A031D382B25
:1006120000304B06031D0F2B01304A06031D382BF9
:10062200C80A0319C90A4808D1004908D200460875
:10063200D3004708D40076217008CE007108CF009D
:100642007008D1007108D2006C217008CC007108CA
:10065200CD007008D1007108D2004E08D3004F08B7
:10066200D40088210708013A031D382B332B0708D1
:10067200C600C7014808D1004908D2004608D30085
:100682004708D40076217008CE007108CF007008A8
:10069200D1007108D2006C217008CC007108CD0025
:1006A2007008D1007108D2004E08D3004F08D40060
:0606B2008821EE2A5B2BFB
:10070C0020308400243083120313F0006130C400C5
:08071C000330C500AD22080006
:1006C200423469346C346C343D3430343034303438
:0606D20030343034003426
:1006D80055346E346934743473343D3430343034C2
:0806E8003034303430340034AA
:1006F00045346E34653472346734793420344D3483
:0A070000653474346534723400343B
:02400E005A0056
:00000001FF
