:0200000068296D
:1000060083120313F801F9011030FC00710DF80D8D
:10001600F90D7408F8027508031C750FF902031828
:100026001B287408F80775080318750FF9070310DD
:0A003600F00DF10DFC0B0928080085
:1000400083120313E7010530670203182E2867089F
:100050006607840020308000E70A232867086607C7
:1000600084008001E70367086607E8000A30F400AF
:10007000F5016408F0006508F10003207808F0003D
:100080007908F1003030F0076808840070088000BB
:100090000A30F400F5016408F0006508F10003205F
:1000A0007008E4007108E50000307106031D5A284D
:1000B00000307006031D5D285F28E7033328080021
:1000C0008312031364089300831614186928000030
:0A00D000642883121308F0000800F2
:0E00DA00831203134A088A00490882000800B6
:1000E8008312031364089300831614187D280000F4
:0A00F800782883121308F0000800B6
:100102008316031398188728000081288312640835
:040112009900080048
:1001160083120313DD015B0884000008DC005C0821
:10012600003A0319A0285C08E4008120DD0A5D0876
:0C0136005B0784000008DC009228080031
:1001420083120313E001E1015B08E2005C08E300B3
:1001520080305C06F00080307002031DB22800304F
:100162005B020318C0280130E0000030E1005B08A8
:10017200003CE2005C08031C013EE301E30262086A
:10018200E4006308E5005D08E60020200630DE009A
:100192000030DF005F08003C031DD1285E08003CF0
:1001A2000318EC285E085D07F20001305E02F000E1
:1001B2000030031C013E5F02F10070085D078400FD
:1001C2000008F00072088400700880000130DE022E
:1001D200031CDF03CB285D08840020308000600808
:1001E200610403190A29DE01DF015E085D0784004C
:1001F2000008203A031D0129DE0A0319DF0AF62846
:100202000130DE02031CDF035E085D0784002D302F
:040212008000080060
:100216008312031307105B08E40074205C08E400F3
:060226007420071408001B
:10022C006D208A110A128000840AC90A0319CA0AAD
:08023C00F003031D1629080060
:100244008030831203135B04E40007107420E4017C
:0602540060200714080001
:10025A008316031398169030831298008316871713
:10026A00071383128C1E3C291A08F000362908004D
:10027A0083160313871283125B08043A031D482965
:10028A00831687154A298316871107168312940144
:10029A005B0894045D0894045C0883169404831232
:1002AA005D0803195F295E08003A031D5E2983165B
:1002BA001417652983125E08031965298316141712
:0602CA00831294160800E7
:1002D0006222831203130714831607108312DB01B3
:1002E000DC011030DD000130DE003D2133308316AB
:1002F000990018152D212830DB008B200D30E400EB
:1003000081200A30E40081200B30FB002630FC0005
:100310005D30FD00FD0B8A29FC0B8A29FB0B8A2925
:10032000000000002D30DB00DC010B213130DB0050
:100330000B30DC000B212C30DB000F30DC000B21FC
:100340002D30DB000830DC000B210930FB001E30B3
:10035000FC00E430FD00FD0BAB29FC0BAB29FB0BD3
:10036000AB2900003230DB0022217008C400C30139
:100370003330DB0022217008C3040030C404343061
:10038000DB0022217008C600C5013530DB002221C8
:100390007008C5040030C6043630DB002221700826
:1003A000C800C7013730DB0022217008C7040030C5
:1003B000C8043F30DB008B204308DB004408DC002E
:1003C0004B30DD00A1204B30DB008B200D30E400F2
:1003D00081200A30E40081200230FB000430FC0060
:1003E000BA30FD00FD0BF229FC0BF229FB0BF229C0
:1003F00000002430DB008B204508DB004608DC00D1
:100400004B30DD00A1204B30DB008B200D30E400B1
:1004100081200A30E40081200230FB000430FC001F
:10042000BA30FD00FD0B122AFC0B122AFB0B122A1C
:1004300000002030DB008B204708DB004808DC0090
:100440004B30DD00A1204B30DB008B200D30E40071
:1004500081200A30E40081200D30E40081200A3040
:08046000E4008120A529332AE4
:1004C40020308400293083120313F0003930C9002E
:0804D4000230CA0016210800E5
:080472005A343A3420340034FE
:08047A0059343A3420340034F7
:100482005334743461347234743469346E3467347E
:1004920020344134443458344C34333434343534D5
:0E04A200203474346534733474342E340034D2
:0804B00058343A3420340034C2
:0C04B80000340034003400340034003400
:04400E00F22F000786
:00000001FF
