:040000008A15F7283E
:0E0006008312031329088A00280882000800CC
:1000140083120313FB01FA01F9018030F800F10C9B
:10002400F00C031C1E287408F90775080318750FD3
:10003400FA070318FB0A0310F01F26287408FA07AE
:1000440075080318750FFB07FB0CFA0CF90CF80C78
:10005400031C11287B08F3007A08F2007908F100E8
:060064007808F00008001E
:10006A0083120313331D9028B31C4B28331C4028DA
:10007A002D30F00042282B30F0006108840070080F
:10008A008000E10AAE0A0319AF0A7B28331C5628FE
:10009A006108840020308000E10AAE0A0319AF0A21
:1000AA007B28C0303305F10034080839F2007208A1
:1000BA00083A031D622880307106031D7B286108F7
:1000CA00840030308000E10AAE0A0319AF0AB31E79
:1000DA0071285830F00073287830F00061088400E5
:1000EA0070088000E10AAE0A0319AF0A2C082D0431
:1000FA0003198F286108840030308000E10AAE0AB3
:10010A000319AF0A0130AC02031CAD032C082D04FD
:10011A00031D7F28FE282C082D040319A628B319CD
:10012A00A6286108840020308000E10AAE0A03197B
:10013A00AF0A0130AC02031CAD032C082D04031DC9
:10014A009628B31CB828331CAD282D30F000AF28F0
:10015A002B30F0006108840070088000E10AAE0AC2
:10016A000319AF0AC228331CC22861088400203050
:10017A008000E10AAE0A0319AF0AC0303305F10064
:10018A0034080839F2007208083A031DCE284030B4
:10019A007106031DD9286108840030308000E10A05
:1001AA00AE0A0319AF0AFE28C0303305F10034083D
:1001BA000839F2007208083A031DE52880307106F2
:1001CA00031DFE286108840030308000E10AAE0A6F
:1001DA000319AF0AB31EF4285830F000F628783015
:1001EA00F0006108840070088000E10AAE0A031971
:1001FA00AF0A8030F000803031067002031D0729F3
:10020A003008320203181229610884003030800055
:10021A00E10AAE0A0319AF0AFE286108F0000800D5
:10022A00312983120313B315E10A0319E20A70296B
:10023A003314E10A0319E20A7029B314E10A031913
:10024A00E20A7029B415E10A0319E20A7029331582
:10025A00E10A0319E20A7029831203136108A8004C
:10026A006208A90003208A110A12F10071082D3AC6
:10027A00031916296108A8006208A90003208A1137
:10028A000A12F1007108203A03191D296108A80011
:10029A006208A90003208A110A12F10071082B3A98
:1002AA00031922296108A8006208A90003208A11FB
:1002BA000A12F1007108233A031927296108A800D4
:1002CA006208A90003208A110A12F1007108303A63
:1002DA0003192C2971291529B31C74293310B31D4C
:0E02EA00772933116108F0006208F100080066
:0802F800FA1FF21300300800A8
:100300007B15FB1F8A290130F300F201F101F00196
:08031000FA0DF20CFF300800A9
:0E031800F201F101F001F801F30100300800DC
:1003260083120313F801F9011030FC00710DF80D6A
:10033600F90D7408F8027508031C750FF902031805
:10034600AB297408F80775080318750FF907031029
:0A035600F00DF10DFC0B99290800D1
:10036000831203136108393C031CBD29303061023C
:0E037000031CBD290130F000BE29F001080079
:10037E00831603139818C5290000BF298312590844
:04038E0099000800CA
:100392007B14FB1FD429F201FA1FFF30F200F10097
:0A03A200F000FA0DF20CFF30080025
:0C03AC000000000000000000000008003D
:1003B800243083120313FC00B530FD00FD0BE22945
:0A03C800FC0BE22900000000080011
:1003D200A0017208031DFE297108F2007008F100E5
:1003E200F001A0157208031DFE297108F200F10147
:1003F200A0112016720803190C2A2008F302031D0B
:10040200031C102A0310F21B142AF00DF10DF20D39
:10041200F30B042A102A0130FC008C21172A023027
:0E042200FC008021172A0430FC007C21080019
:1004300083120313AE01AF01B301B4015A08F000F7
:100440005B08F100DA0A0319DB0A7008A8007108DA
:10045000A90003208A110A12F0007008B200700887
:100460000319B52E3208253A03193F2A590884008A
:1004700032088000D90AAE0A0319AF0A1E2AAC015D
:10048000AD01B301B4015A08E1005B08E200152197
:100490007008DA007108DB007008A8007108A90074
:1004A00003208A110A12F0000030F1007008E10008
:1004B000B021700803198E2AAC01AD012C08F000A0
:1004C0002D08F1000A30F4000030F5000A205A0827
:1004D000A8005B08A90003208A110A12F200720822
:1004E0007007AC0071080318013EAD003030AC025B
:1004F000031CAD03DA0A0319DB0A5A08A8005B08DB
:10050000A90003208A110A12F0000030F1007008DF
:10051000E100B0217008031D5E2AB12A5A08A80024
:100520005B08A90003208A110A12F10071082A3A17
:10053000031DB12A5C0884000008F00070088400E4
:100540000008AC00840A0008AD005C08840002309A
:100550000007F0005C08840070088000DA0A0319C4
:10056000DB0A5A08A8005B08A90003208A110A12B6
:10057000F10071082E3A031D172BDA0A0319DB0A62
:100580005A08A8005B08A90003208A110A12F1008A
:1005900071082A3A031DE42A5C0884000008F00070
:1005A000700884000008B000840A0008B1005C08EC
:1005B000840002300007F0005C08840070088000AE
:1005C000DA0A0319DB0A162BB001B1015A08A80098
:1005D0005B08A90003208A110A12F0000030F10024
:1005E0007008E100B02170080319162B3008F000E4
:1005F0003108F1000A30F4000030F5000A205A08F2
:10060000A8005B08A90003208A110A12F2007208F0
:100610007007B00071080318013EB1003030B0021D
:10062000031CB103DA0A0319DB0AE62A192BB0010D
:10063000B1015A08F0005B08F100DA0A0319DB0A7D
:100640007008A8007108A90003208A110A12B200DC
:10065000F12B2E08F0002F08F100B92E3317222CB1
:10066000222CB316B317222C5C0884000008F0007B
:10067000700884000008DD005C088400000AF000B7
:100680005C088400700880005D08003A031D4A2B56
:100690002130DD00DE01DF015E085D078400000817
:1006A00003195F2B5E08013EF00000300318013E85
:1006B0005F07F1007008DE007108DF004C2B300886
:1006C000310403196F2B5F083102031D692B5E088B
:1006D000300203186F2B3008DE003108DF002D08D0
:1006E0005F02031D752B2C085E0203187E2B5E082B
:1006F000AC02031CAD035F08AD02802BAC01AD0161
:10070000B319972B2C08F0002D08F1000130AC0232
:10071000031CAD03700871040319972B590884005A
:1007200020308000D90AAE0A0319AF0A822B5E0876
:10073000F2005F08F30001305E02F0000030031C9D
:10074000013E5F02F1007008DE007108DF007208F0
:1007500073040319BC2B5D0884000008F0005908DD
:10076000840070088000D90A5D0AF0007008DD007E
:10077000AE0A0319AF0A972BB31DD32B2C08F00038
:100780002D08F1000130AC02031CAD0370087104A8
:100790000319D32B5908840020308000D90AAE0AEF
:1007A0000319AF0ABE2B1E2A5C0884000008F00063
:1007B000700884000008B2005C0884000230000762
:1007C000F0005C088400700880003230DD000130E9
:1007D000DE000030DF005F2BC030B3040030B40413
:1007E000222C3208003A0319292B32086C3A0319DB
:1007F0002E2B32084C3A03192E2B32086F3A03196C
:100800002E2B3208643A0319302B3208693A031947
:10081000302B3208703A0319312B3208583A031939
:10082000312B3208783A0319322B3208733A031904
:10083000342B3208633A0319D42B3208753A031962
:10084000EC2BE52BC0303305F1003408F20000300A
:10085000F20500307206031D2F2C00307106031DB7
:10086000652C5C0884000008F00070088400000813
:10087000F000840A0008F1007008DD007108DE0055
:100880005C08840002300007F0005C0884007008F7
:10089000800080305E06F00080307002031D522C14
:1008A00000305D020318642C0330B3040030B4043C
:1008B0005D08003CF0005E08031C013EF101F102FE
:1008C0007008DD007108DE007D2C5C0884000008E3
:1008D000F000700884000008F000840A0008F100AD
:1008E0007008DD007108DE005C088400023000073B
:1008F000F0005C0884007008800000303106031DA1
:10090000832C00303006031D902C00305E06031D42
:100910008B2C00305D06031D902CB00A0319B10A20
:10092000C0303305F0007008F4001D2D0130B20016
:100930003208053A0319C22C3208F000F101F00D1B
:10094000F10D7010A330F00709300318013EF107D4
:100950007008A8007108A90003208A110A12F20089
:10096000A80A0319A90A03208A110A12F3007308BE
:100970005E02031DBD2C72085D020318C02CC22C40
:10098000B20A982C2D2D0130B2003208043A031916
:10099000EF2C3208F000F101F00DF10D7010AD30C8
:1009A000F00709300318013EF1077008A80071082C
:1009B000A90003208A110A12F200A80A0319A90A41
:1009C00003208A110A12F30073085E02031DEA2C49
:1009D00072085D020318ED2CEF2CB20AC52C2D2DE8
:1009E0000130B2003208063A03191C2D3208F0001B
:1009F000F101F00DF10D70108D30F0070930031882
:100A0000013EF1077008A8007108A90003208A11AF
:100A10000A12F200A80A0319A90A03208A110A126D
:100A2000F30073085E02031D172D72085D020318A0
:100A30001A2D1C2DB20AF22C2D2D7408003A031920
:100A4000962C7408C03A0319962C7408803A03193E
:100A5000C32C7408403A0319F02C8030F000803029
:100A600031067002031D362D3008320203183B2D6B
:100A70003008B200492D80303106F000803070021D
:100A8000031D442D320830020318492D3208B000EE
:100A9000B1012C082D0403195C2D03303305F0003F
:100AA0003408F1000030F1057008710403195C2D61
:100AB0000130AC02031CAD0380303106F000803001
:100AC0002D067002031D662D2C08300203186F2DB1
:100AD0003008AC02031CAD033108AD02712DAC012E
:100AE000AD01C4303305F10034080839F200720852
:100AF000083A031D7D2D40307106031D882D2C08FA
:100B00002D040319872D0130AC02031CAD03A82D61
:100B1000C0303305F10034080839F2007208083A91
:100B2000031D942D80307106031DA82D8030F00028
:100B300080302D067002031D9F2D2C08023C0318E7
:100B4000A62D0230AC02031CAD03A82DAC01AD01F3
:100B50005908E10035207008D9003008F00031084C
:100B6000F1000130B002031CB103700871040319D5
:100B7000972EC0303305F0007008E0007E2E30085C
:100B8000F0003108F100F00DF10D7010A330F00706
:100B900009300318013EF1077008A8007108A90088
:100BA00003208A110A12F400A80A0319A90A0320D3
:100BB0008A110A12F5005D08F0005E08F100932129
:100BC0000A30F4000030F50093217808F00079082D
:100BD000F10030307007B2008E2EB31E232E300885
:100BE000F0003108F100F00DF10D7010AD30F0079C
:100BF00009300318013EF1077008A8007108A90028
:100C000003208A110A12F400A80A0319A90A032072
:100C10008A110A12F5005D08F0005E08F1009321C8
:100C20000F30F0050030F105E830F0070730031809
:100C3000013EF1077008A8007108A90003208A117D
:100C40000A12B200562E3008F0003108F100F00D03
:100C5000F10D7010AD30F00709300318013EF107B7
:100C60007008A8007108A90003208A110A12F40074
:100C7000A80A0319A90A03208A110A12F5005D08BF
:100C8000F0005E08F10093210F30F0050030F1050F
:100C90007C30F00709300318013EF1077008A80006
:100CA0007108A90003208A110A12B2008E2E3008A2
:100CB000F0003108F100F00DF10D70108D30F007EB
:100CC00009300318013EF1077008A8007108A90057
:100CD00003208A110A12F400A80A0319A90A0320A2
:100CE0008A110A12F5005D08F0005E08F1009321F8
:100CF00007307005B2003030B2078E2E6008003A1F
:100D00000319BF2D6008C03A0319BF2D6008803A4F
:100D10000319ED2D6008403A0319572E5908840035
:100D200032088000D90AAE0A0319AF0AAD2DB31DEF
:100D3000B42E8030F00080302D067002031DA22EEC
:100D40002C08003C0318B42E590884002030800081
:100D5000D90AAE0A0319AF0A0130AC02031CAD0375
:100D60002C082D04031DA42E1E2A2E08F0002F0887
:040D7000F100080086
:100D7400243083120313FD00FD0BBE2E0000080077
:060D8400FB15FF30080022
:100D8A00FB14FB1FCF2EFF30F300F200F100F0003E
:080D9A00FA0DF20CFF30080015
:100DA2008316031388110811081288120813881376
:100DB2008312881108118813081388120812DC2183
:100DC200DC21DC21881608168815D6218811DC2141
:100DD2008815D6218811DC218815D6218811DC21BD
:100DE20008128815D6218811DC218815D621881190
:100DF200881288178815D6218811DC2188130816D5
:100E02008815D621881108128815D6218811DC216F
:100E12008815D621881108168815D6218811DC215B
:100E220008128815D62188118817081788160816FF
:0C0E32008815D6218811DC214B14080023
:100E3E0083120313FB01730803195C2F7208FA0067
:100E4E00F2178E30F302F31F5F2FF309F30A083007
:100E5E007302031C422FF300F10D7208F100F20130
:100E6E0008307302031C422FF300F10DF1017308D9
:100E7E00031D03104A2F730803194A2F0310F20C97
:100E8E00F10CF30B452F7B1B711C542F031C542F9D
:100E9E00F10A0319F20AF21B6B2FFA1F6E2FF209D9
:100EAE00F109F10A0319F20A6E2FF201F1016E2F08
:100EBE007B14FB1F712FF201FA1F712FFF30F2000E
:100ECE00F100FA0DF20C712F0130FC00732F00307F
:100EDE00FC00732FFF30FC00FC080319772FC9218B
:0A0EEE007108F0007208F10008001E
:100EF800FF3083120313CC00FF30CD00FF30CE004B
:100F0800FF309F01C0309F0483161F179F1783125D
:040F18001F1408009A
:100F1C008316031398169030831298008316871744
:100F2C00071383128C1E9D2F1A08F000972F0800B0
:100F3C00831203139F01C0309F0483161F179F1742
:100F4C0083124F08F000F00D7010F00D7010F00DC2
:100F5C00701070089F041F14BA261F151F1DB82F80
:100F6C000000B42F1F101E08F100F00183161E089C
:080F7C00F0040030F10408004C
:100F840003208A110A128000840AA80A0319A90AF4
:080F9400F003031DC22F080049
:100F9C00523083120313D8004F08D9005008DA00DE
:100FAC005108DB005830DC0018227008D60071089C
:100FBC00D70070084F07840080015608F0005708CE
:040FCC00F100080028
:10100000831203137408003A031D1B287508003A65
:10101000031D1B287608003A031D1B287708003A99
:10102000031D1B28FF30F000FF30F1007F30F2007D
:10103000FF30F300BE288312031377080319AA2890
:1010400073080319AF28720876068039FA00F21780
:10105000F617A0017208F8007108FC007008FD0086
:101060007408FD027508031C750FFC027608031C4A
:10107000760FF802F801FC01FD01031C462803105D
:10108000F20CF10CF00CF80C0130A0007708F30220
:10109000031C50287E302007F3070318B428552876
:1010A0007E302007F307031CB9281830FA07FD0D1E
:1010B000FC0DF80DF00DF10DF20DA00D7408F0020D
:1010C0007508031C750FF1027608031C760FF202F7
:1010D000760DA004201C6E287D1479287408F00772
:1010E00075080318750FF10776080318760AF207DA
:1010F0007D10FA031F307A05031D57287B1B7D1CCA
:10110000A0280310F00DF10DF20DA00D7408F002EF
:101110007508031C750FF1027608031C760FF202A6
:10112000760D20040139FD070318FC0A0319F80A9B
:10113000031DA028F80CFC0CFD0CF30A0319B428BD
:10114000FA1FF8137808F2007C08F1007D08F0001F
:101150000030BD2801308A11C2268A15BD28023010
:101160008A118C218A15BD2804308A11C5268A155A
:0E117000BD2808308A1180218A150000080071
:10117E0083120313D1014F0884000008D0005008D9
:10118E00003A0319D6285008D9008A11BF218A15B2
:10119E00D10A51084F0784000008D000C628080065
:1011AE00831203137008F8007108F000F101F201C8
:1011BE00F301FB01FC019630F300FA01F01FED285C
:1011CE00F809F009F80A0319F00AFA177008F10085
:1011DE007808F000F801F2018A11E9218A15080059
:1011EE00B621831603139F018601FF3087008312F9
:1011FE0086018A117C278A158A11D1268A1581309B
:10120E008316990018158A118E278A150230FB0055
:10121E004530FC00A930FD00FD0B1329FC0B1329F2
:10122E00FB0B132900000000CF018A119E278A159F
:10123E0070088312AA007108AB00D7200A30F400A0
:10124E00D730F5000330F6008030F70000208A1109
:10125E001F278A157008AA007108AB000130CF0055
:10126E008A119E278A1570088312C9007108CA0058
:10127E00D7200A30F400D730F5000330F600803066
:10128E00F70000208A111F278A157008C9007108FF
:10129E00CA003530CF009930D0000930D1002A086D
:1012AE00D2002B08D3007008D4007108D5008A1123
:1012BE00CE278A153530CF00BF202630CF00BF2075
:1012CE000630FB001330FC00AD30FD00FD0B6D2928
:1012DE00FC0B6D29FB0B6D29000000001B297629E4
:10136C0021308400073083120313F000F930A800F9
:0C137C000730A9008A11C2278A1508005A
:100FD00030343134323433343434353436343734D5
:100FE000383439344134423443344434453446345B
:020FF0000034CB
:0A0FF2006E3475346C346C34003436
:040FFC000A3400347F
:1012F80030343134323433343434353436343734AA
:10130800383439346134623463346434653466346F
:0213180000349F
:10131A0001340034083400344034003400340234D8
:08132A0000341034003480345B
:1013320025343034333464342A342534303433346D
:0413420064340034DB
:10134600013400340A34003464340034E83403349D
:0413560010342734F4
:10135A0001340034103400340034013400341034C1
:02400E007A3BFB
:00000001FF
