:040000006FEF0BF0A3
:1000080000C01AF001C019F002C018F003C017F0C0
:1000180004C016F005C015F0E1CF21F0E2CF22F0C0
:10002800E9CF1FF0EACF20F0F5CF1EF0F8CF1BF094
:10003800F7CF1CF0F6CF1DF0CBEC0AF01EC0F5FF91
:100048001BC0F8FF1CC0F7FF1DC0F6FF1AC000F068
:1000580019C001F018C002F017C003F016C004F070
:1000680015C005F01FC0E9FF20C0EAFF21C0E1FF6D
:0600780022C0E2FF1100AE
:10007E00000E056E040E066E8FC003F0000E046EA9
:10008E0003360436039003360436039090C000F016
:10009E00000E016E0036013600900050032601500E
:1000AE00042203C001F004C002F0013601900236B2
:1000BE0001360190023601C003F002C004F0043292
:1000CE000332049E04BC048E04320332049E04BC2C
:1000DE00048E03C000F004C001F00036009001361B
:1000EE00003600900136055000260650012200C051
:1000FE0005F001C006F000C0E1FF01C0E2FFE69E80
:10010E0000019051000A12E18FC000F0000E016E46
:10011E00003600900136230E0024E16E000E012001
:10012E00E26E05C0E6FF06C0E6FF11D08FC000F0FC
:10013E00000E016E003600900136320E0024E16E84
:10014E00000E0120E26E05C0E6FF06C0E6FF05C008
:10015E00E1FF06C0E2FFE69C040E0524E16E000EF0
:08016E000620E26EE68C12008F
:0E017600800E00018F11006E00C061F01200BB
:100184008FC05EF090C05FF091C062F092C063F0E7
:10019400800E00019311006E008000C061F0120017
:1001A4008FC05EF090C05FF091C060F092C062F0CA
:1001B40093C063F0800E00019411006E00C061F0E2
:0201C400120027
:1001C60020C401F01F0E01160150010A01E08BD078
:1001D60004012451000A01E086D02151060A38E1C3
:1001E6002DD05B50010A13E1740E00018F6F190EBA
:1001F600906F000E916F120E8F27000E90239123A1
:10020600090E926F000E936F400E946FC8DF20D0D8
:100216005B50010A0EE100019D0E8F6F190E906F63
:10022600000E916F210E926F000E936F400E946F29
:10023600B6DF0ED000018F6B9BDF0AD0040123517D
:10024600210ACFE02351220AE3E02351230AF2E0F8
:1002560020C401F0600E0116050E006E005004E089
:100266000132019EFF0FFBD70150010A01E03BD08E
:1002760027D039D038D0390E00018F6F000E906F1D
:10028600010E916F000E926F400E936F78DF2BD0A8
:1002960000018F6B6DDF23C439F025D00001290ED4
:1002A6008F6F000E906F010E916F000E926F936B21
:1002B60066DF19D000018F6B5BDF22C429F013D0F3
:1002C60004012151010AD5E02151090AD3E0215147
:1002D600020AD1E021510A0ADBE02151030ADEE0DD
:0802E60021510B0AE7E01200B0
:1002EE00700EE16E0F0EE26E00018A51E126D8B05B
:1002FE00E22A8BC0E6FF8BA504D08AC08FF0906BEC
:10030E00B7DE8BA305D08AC08FF0010E906FB0DEE2
:02031E001200CB
:1003200000018B51000A12E08AC000F0000E016E3D
:10033000003600900136320E0024E96E000E0120D6
:10034000EA6EEECF04F0EECF05F011D08AC000F0D7
:10035000000E016E003600900136230E0024E96E77
:10036000000E0120EA6EEECF04F0EECF05F0020E93
:100370000424E16E000E0520E26E8CC0E6FF8DC005
:10038000E6FF010E0424E16E000E0520E26E8EC031
:10039000E6FF04C0E9FF05C0EAFFEECF00F004C0AD
:1003A000E1FF05C0E2FF400E0014E66E04C0E9FF65
:1003B00005C0EAFFEECF00F004C0E1FF05C0E2FF98
:1003C000880E0010E66E8B51000A1BE08AC000F018
:1003D000000E016E003600900136320E0024026ECF
:1003E000000E0120036E02C0E9FF03C0EAFF040E05
:1003F000EE18006E02C0E1FF03C0E2FF00C0E6FF9E
:100400001AD08AC000F0000E016E0036009001364E
:10041000230E0024026E000E0120036E02C0E9FFCD
:1004200003C0EAFF040EEE18006E02C0E1FF03C035
:10043000E2FF00C0E6FF04C000F005C001F01200BA
:100440000001665314E0010E8A6F1E0E8B6F4FDFA2
:10045000010E8A6F8B6B64C08CF065C08DF0400E0E
:100460008E6F5EDF00C06FF001C070F013D0010E20
:100470008A6F1E0E8B6F3BDF010E8A6F8B6B64C021
:100480008CF065C08DF0400E8E6F4ADF00C06FF0BB
:0604900001C070F0120033
:0A0496000001665301E094DE12003D
:1004A00084C002F085C003F087C000F088C001F06E
:1004B000010E0001875F000E885B0050011009E00B
:1004C00002C0E1FF03C0E2FF86C0E6FF024A032A42
:0404D000EBD7120054
:1004D4000CD0B4DF3CD03BD0DCDF39D038D037D0BF
:1004E40036D035D0000033D032D0000E000185194B
:1004F40002E1010E8419EDE0000E851902E1020EFD
:100504008419E9E0000E851902E1030E8419E4E080
:100514008551000A02E1730E8419E0E08551000A56
:1005240002E1750E8419DBE08551000A02E1740EC4
:100534008419D6E085513F0A02E1FF0E8419D1E007
:100544008551000A02E1720E8419CCE0CDD7010E68
:04055400006E120023
:100558000B6A0A6A096A00500402F4CF09F0F3CF63
:1005680008F001500502F4CF0BF0F3CF0AF0005069
:100578000502F3500926F4500A22E86A0B220150BA
:100588000402F3500926F4500A22E86A0B2208C034
:1005980000F009C001F00AC002F00BC003F012001D
:1005A8000401286B296B48D00001618F0401288160
:1005B8002D50010AD8B4288354D00001618F51D03E
:1005C8000001618F040124BF16D024C403F00F0E6C
:1005D800031603C000F0000E016E003600900136CD
:1005E800230E0024E96E000E0120EA6EEECF04F01F
:1005F800EECF05F015D024C403F00F0E031603C088
:1006080000F0000E016E003600900136320E002414
:10061800E96E000E0120EA6EEECF04F0EECF05F091
:1006280004C0E9FF05C0EAFFEECF01F001A403D042
:100638000401010E286F15D020C401F01F0E011609
:100648000150000AB1E020C401F01F0E011601504C
:10065800010AB3E020C401F01F0E01160150020A7E
:10066800AFE0000161AF07D0280E5E6E040E5F6E2A
:080678006181020E626F1200A5
:1006800004012251010A11E120C401F01F0E0116DC
:100690000150000A0AE10001618F04012151030A9F
:1006A00003E1010E2D6E01D02D6A2251000AD8A45B
:1006B0008BD020C401F01F0E01160150020AD8A4ED
:1006C00083D024C401F00F0E01160150000AD8B4E3
:1006D0007BD00001618F040124BF16D024C403F035
:1006E0000F0E031603C000F0000E016E00360090DE
:1006F0000136230E0024E96E000E0120EA6EEECFD3
:1007000004F0EECF05F015D024C403F00F0E03164D
:1007100003C000F0000E016E003600900136320E6C
:100720000024E96E000E0120EA6EEECF04F0EECF59
:1007300005F02151030A07E104C0E1FF05C0E2FF13
:10074000840EE66E41D024C400F00F0E0016700E29
:10075000026E0F0E036E00500226D8B0032A02C0AC
:10076000E9FF03C0EAFFEECF00F0EECF01F000900A
:1007700002C0E1FF03C0E2FF00C0E6FF01C0E6FFE8
:1007800024AF11D004C0E1FF05C0E2FFE66A040E09
:100790000418006E00C004F004C0E1FF05C0E2FFD1
:1007A000400EE66E11D004C0E1FF05C0E2FF880EE6
:1007B000E66E040E0418006E00C004F004C0E1FFF1
:0A07C00005C0E2FFC80EE66E12004D
:1007CA00000E0001635D02E1080E625D10E262C084
:1007DA0003F063C004F03150000A03E1010E316EE8
:1007EA0005D03150010A02E1020E316E04D0080E22
:1007FA00036E000E046E000132C0E1FF33C0E2FF57
:10080A00E69232C0E1FF33C0E2FFE69032C0E9FF70
:10081A0033C0EAFFEECF00F032C0E1FF33C0E2FF9F
:10082A0004500010E66E010E3224E16E000E3320F1
:10083A00E26E03C0E6FF0350625D006E0450635926
:10084A00016E00C062F001C063F0280E2E6E040E25
:10085A002F6E61B12FD0035004102BE05EC0F6FF5B
:10086A005FC0F7FF60C0F8FF0900F5CF00F02EC0A7
:10087A00E1FF2FC0E2FF00C0E6FF2E4A2F2A010E39
:10088A005E24006E000E5F20016E000E6021026E73
:10089A0000C05EF001C05FF002C060F0010E035CB0
:1008AA00006E000E0458016E00C003F001C004F08F
:1008BA00D2D724D00350041021E05EC0E9FF5FC004
:1008CA00EAFF2EC0E1FF2FC0E2FFEECFE6FF2E4A7D
:1008DA002F2A010E5E24006E000E5F20016E00C0FA
:1008EA005EF001C05FF0010E035C006E000E04585A
:0E08FA00016E00C003F001C004F0DCD7120054
:10090800F250026EF29E0500FF6A0150FE6E005022
:08091800FD6E02BEF28E12001A
:100920000001618F710E846F0F0E856F866B010E53
:10093000876F000E886FB4DD6E0E846F000E856FBA
:10094000866B010E876F000E886FAADD22C45BF0F4
:100950005B50000A03E1100E516E0FD0200E516E55
:10096000010E846F000E856F5B0E866F000E876F21
:0C097000010E886F000E896FADDD1200D3
:10097C0004012051800AD8A479D0C00E0001616F07
:10098C006AD00001BE0E006E190E016E000E026ED2
:10099C0000C05EF001C05FF002C060F0120E626F2A
:1009AC00000E636F63D00001030E006E000E016E2B
:1009BC0022C404F0000E056EC9DD360E0024E96E6B
:1009CC00000E0120EA6EEECF5EF0EECF5FF0EECFC0
:1009DC0060F0020E5E24F66E000E5F20F76E000EC5
:1009EC006021F86E0900F5CF00F00900F5CF01F099
:1009FC0000C062F001C063F039D0030E0401225D27
:100A0C0024E2030E006E000E016E22C404F0000EF0
:100A1C00056E9CDD3E0E0024E96E000E0120EA6E90
:100A2C00EECF5EF0EECF5FF0EECF60F05EC0F6FF83
:100A3C005FC0F7FF60C0F8FF0900F5CF00F000C001
:100A4C0062F0000E0001636F02D00001616B0ED0EA
:100A5C000001616B0BD004012351010A92E0235178
:0E0A6C00020AA1E02351030AC8E0F2D71200EB
:100A7A0020C401F0600E0116050E006E005004E05D
:100A8A000132019EFF0FFBD70150000A01E067D037
:100A9A0043D00001618F080E516E61D06ADF5FD0CA
:100AAA003ADF5DD05B0E5E6E000E5F6E0001618103
:100ABA00010E626F618F53D072DD51D0DCDD4FD0F1
:100ACA006E0E006E000E016E24510026D8B0012A67
:100ADA0000C05EF001C05FF000016181010E626F2B
:100AEA00618F3DD00001618F6E0EE16E000EE26EE5
:100AFA0004012451E126D8B0E22A22C4E6FF2FD00D
:100B0A00020E0001846F000E856F866B876B886BFF
:100B1A00896BDBDC24D023D004012151050AB9E01A
:100B2A002151060ABBE02151090ABAE02151080AFB
:100B3A00B9E02151000AC0E02151010ABFE0215168
:100B4A00030ABCE021510A0ABBE021510B0ACAE0A0
:100B5A002151070AD5E021510C0ADDE0DCD7120049
:100B6A00010E2A24E96E000E2B20EA6EEECF00F069
:100B7A0000C082F0000E565C03E100018251555C10
:100B8A0003E255C082F00BD000018251555C006E21
:100B9A00000E5658016E00C055F001C056F0000113
:100BAA00836B8251835D1CE2280EE96E040EEA6EA5
:100BBA008351E926D8B0EA2AEECF00F052C0E1FF0D
:100BCA0053C0E2FF00C0E6FF010E5224006E000E81
:100BDA005320016E00C052F001C053F0832BE1D7BD
:100BEA00000E006E5650005C02E15550000828E2E3
:100BFA00010E2724E16E000E2820E26E080EE66E32
:100C0A00020E2724E16E000E2820E26E280EE66E00
:100C1A00040EE66E2AC0E9FF2BC0EAFFEECF00F011
:100C2A0000BC07D027C0E1FF28C0E2FFC80EE66E6D
:100C3A0006D027C0E1FF28C0E2FF880EE66E2BD05F
:100C4A00010E2724E16E000E2820E26E080EE66EE1
:100C5A00020E2724E16E000E2820E26E200EE66EB8
:100C6A00040EE66E27C0E1FF28C0E2FF840EE66E9E
:100C7A00000E006E5A1808E10050591805E100509C
:100C8A00581802E15750000A05E057C000F058C052
:080C9A0001F035DE549E12004A
:100CA2002C6A32C0E1FF33C0E2FFE66A040E32185A
:100CB200E16E33C0E2FF000EE21AE66A54AE13D0D0
:100CC200000E006E5A1808E10050591805E1005054
:100CD200581802E15750000A05E057C000F058C00A
:080CE20001F011DE549E120026
:100CEA006D98000161BF49D054AE28D0020E2C6E17
:100CFA00010E3224E16E000E3320E26EE66A32C043
:100D0A00E1FF33C0E2FFC80EE66E010E2724E16E52
:100D1A00000E2820E26E080EE66E020E2724E16E0F
:100D2A00000E2820E26E280EE66E040EE66E27C03C
:100D3A00E1FF28C0E2FFC80EE66E1ED0010E27248E
:100D4A00E16E000E2820E26E080EE66E020E2724DF
:100D5A00E16E000E2820E26E200EE66E040EE66EAC
:100D6A0027C0E1FF28C0E2FF8C0EE66E32C0E1FF29
:100D7A0033C0E2FF840EE66E81D054BE7FD00401F8
:100D8A0020AF55D0000163510401275D04E1000141
:100D9A0062510401265D04E226C462F027C463F0AE
:100DAA000FDD010E2C6E010E2724E16E000E2820A5
:100DBA00E26E080EE66E020E2724E16E000E28206F
:100DCA00E26E200EE66E040EE66E27C0E1FF28C032
:100DDA00E2FF800EE66E306A010E2A24E16E000EF2
:100DEA002B20E26E080EE66E020E2A24E16E000E39
:100DFA002B20E26E200EE66E040EE66E2AC0E1FF9C
:100E0A002BC0E2FF840EE66E010E306E020E322413
:100E1A00E16E000E3320E26E280EE66E040EE66ED8
:100E2A0032C0E1FF33C0E2FFC80EE66E27D0020EE1
:100E3A002C6E010E3224E16E000E3320E26EE66A59
:100E4A0032C0E1FF33C0E2FFC80EE66E010E27246E
:100E5A00E16E000E2820E26E080EE66E020E2724CE
:100E6A00E16E000E2820E26E280EE66E040EE66E93
:0E0E7A0027C0E1FF28C0E2FFC80EE66E12009E
:100E880032C0E9FF33C0EAFFEECF00F000AE05D074
:100E980032C0E1FF33C0E2FFE66A316A2C6A000122
:100EA800626B636B616BE5DD030E0001846F000EFE
:100EB800856F866B876B886B896B6AEC02F011DF34
:020EC800120016
:100ECA0032C0E9FF33C0EAFFEECF00F0000E00BCEB
:100EDA00010E0001816F040E3218006E00C032F05C
:100EEA005150080A0AE122C46EFF6E50000803E25C
:100EFA00100E516E02D0040E516E2C50010A2BE1D5
:100F0A00020E3224E16E000E3320E26E280E006ECD
:100F1A00040E016E00C0E6FF01C0E6FF51DC31504D
:100F2A00020A07E132C0E1FF33C0E2FF840EE66E37
:100F3A0011D000018151000A07E132C0E1FF33C03C
:100F4A00E2FFC80EE66E06D032C0E1FF33C0E2FF10
:0A0F5A00880EE66E01D0A0DE120042
:100F64002C50020A02E1FFDD1ED099DE3050000A47
:100F740019E1010E2724E16E000E2820E26E080E0E
:100F8400E66E020E2724E16E000E2820E26E200E8B
:100F9400E66E040EE66E27C0E1FF28C0E2FF8C0E69
:080FA400E66E01D0306A120074
:0A0FAC00D08EA28AA08AF28E1200F5
:100FB600000E00017B1902E1000E7A1902E1016AB6
:100FC60009D07AC0E9FF7BC0EAFFEECF00F0016AE4
:0A0FD60000BE012A01C000F0120065
:100FE0007AC002F07BC003F07DC000F07EC001F04B
:100FF000010E00017D5F000E7E5B0050011009E0D4
:1010000002C0E1FF03C0E2FF7CC0E6FF024A032A00
:04101000EBD7120008
:10101400740E366E190E376E000E386ED00E3E6E9C
:10102400190E3F6E000E406E140E416E190E426E84
:10103400000E436E460E446E190E456E000E466E4B
:02104400120098
:0E104600160E6F6E9F0E6B6E7B0E696E1200A3
:1010540000017B51000A12E07AC000F0000E016E1C
:10106400003600900136320E0024E96E000E012095
:10107400EA6EEECF04F0EECF05F011D07AC000F0A6
:10108400000E016E003600900136230E0024E96E36
:10109400000E0120EA6EEECF04F0EECF05F0020E52
:1010A4000424E16E000E0520E26E7CC0E6FF7DC0E4
:1010B400E6FF010E0424E16E000E0520E26E7EC000
:1010C400E6FF04C0E9FF05C0EAFFEECF00F004C06C
:1010D400E1FF05C0E2FF400E0014E66E04C0E9FF24
:1010E40005C0EAFFEECF00F004C0E1FF05C0E2FF57
:1010F400880E0010E66E7B51000A1BE07AC000F0F7
:10110400000E016E003600900136320E0024026E8D
:10111400000E0120036E02C0E9FF03C0EAFF040EC3
:10112400EE18006E02C0E1FF03C0E2FF00C0E6FF5C
:101134001AD07AC000F0000E016E0036009001361D
:10114400230E0024026E000E0120036E02C0E9FF8C
:1011540003C0EAFF040EEE18006E02C0E1FF03C0F4
:10116400E2FF00C0E6FF04C000F005C001F0120079
:10117400200E515C03E36DB201D002D0006A23D08B
:101184006FC07AF070C07BF014DF00521BE1010ED7
:101194006F25E96E000E7021EA6EEECF00F000C0FC
:1011A40079F078C07AF07B6B75C07CF076C07DF006
:1011B40077C07EF04DDF00C06FF001C070F079C0E1
:0811C40000F001D0006A1200E6
:0C11CC00240E0D6E0D2EFED70000120048
:1011D8001DDF00016F6B706B6B6B6C6B6A6A686A02
:1011E8002EDF6D8C6E6A710E7A6F0F0E7B6F7C6BC3
:1011F800010E7D6F000E7E6FEFDE6D9C756B080E25
:10120800755D16E275C000F0000E016E00360090A4
:101218000136003600900136000E0024E16E040EFF
:101228000120E26EE66AE66AE66AE66A752BE7D7A7
:10123800160E706E68A603D0F70E6816FBD7616BA2
:10124800546A556A566A6D98080E326E040E336EEB
:061258005B6A516A1200FE
:10125E00200E515C03E36DB201D002D0006A33D090
:10126E006BC07AF06CC07BF09FDE00522BE178C031
:10127E007AF0010E7B6F75C07CF076C07DF077C082
:10128E007EF0E1DE00C06BF001C06CF0676B686B46
:10129E00696B6A6B6BC07AF06CC07BF085DE0052B6
:1012AE0008E06751681169116A1102E0006A0BD0FB
:1012BE00F1D7010E6B25E96E000E6C21EA6EEECFB2
:0812CE0000F001D0006A1200DB
:1012D6005150000A0AE16D6A696AB2DE64DE6DB6D3
:0C12E60002D06D86FCD7010E516E120084
:0412F200A19A1200AB
:1012F6006984EF0E68166D82750E0001846F000E0C
:10130600856F866B876B886B896B6AEC02F01200BF
:1013160070A019D02AC0E9FF2BC0EAFFEECF01F07A
:101326000150800A0FE132C0E9FF33C0EAFFEECF79
:1013360001F00150840A06E12AC0E1FF2BC0E2FF5A
:0C1346008C0EE66E7090DF0E6816120030
:10135200FD0E00016D15016E026AFF0E0216000EEF
:10136200021802E1000E01186BE17E0E6D15016E8E
:1013720001C003F00332039E03C000F0000E016EB1
:10138200003600900136003600900136000E00242F
:10139200026E040E0120036E02C02AF003C02BF07D
:1013A20002C027F003C028F0040E2718006E00C008
:1013B20027F002C0E9FF03C0EAFFEECF00F000C051
:1013C20001F03C0E01160132019E0132019E0150D4
:1013D2000D0A34E1020E2A24E96E000E2B20EA6E79
:1013E200EECF01F0EECF02F00250040A02E1280E25
:1013F200011822E1020E2A24E16E000E2B20E26E79
:10140200200EE66E040EE66E806B080E805D14E21E
:10141200200EE16E040EE26E8051E126D8B0E22A7F
:10142200280EE96E040EEA6E8051E926D8B0EA2A47
:10143200EECFE6FF802BE9D726DD01D092DD0ED07C
:10144200FD0E00016D15016E026AFF0E0216000EFE
:0E145200021802E1040E011801E136DD12005D
:10146000740E0001846F000E856F866B876B886B2E
:10147000896B6AEC02F06D92699468A403D0FB0E4C
:061480006816FBD7120004
:10148600C6DD00016F6B706B6B6B6C6B6A6A686AAA
:10149600D7DD6D8C6E6A710E846F0F0E856F866B4D
:1014A600010E876F000E886F50EC02F06D9C806B0A
:1014B600080E805D16E280C000F0000E016E003658
:1014C60000900136003600900136000E0024E16ED1
:1014D600040E0120E26EE66AE66AE66AE66A802B98
:1014E600E7D7160E706E68A603D0F70E6816FBD700
:1014F600616B546A556A566A6D98080E326E040E10
:08150600336E5B6A516A1200AA
:10150E00C26A070EC012C08E71C000F00036009085
:10151E00003600900050C212C28051DEC282C2A2BA
:10152E0001D0FDD7C4CF01F0006AC3500012000EE7
:06153E000112C290120030
:10154400FF0E3A6EFF0E3B6EFF0E3C6EFF0E3D6EBD
:0C155400C26A070EC012C08EC2801200D6
:10156000010E0001666F71C064F072C065F073C057
:101570005CF074C05DF030DE010E016E0150010AB6
:0615800001E1A9DE1200EA
:101586000900F5CFE6FF0006FBE10106F9E11200CE
:101596005150010A07E16DBA05D0686A6980698809
:1015A600020E516E68A405D069A403D0FB0E68161E
:1015B60054DF6DA202D09ADE78D068A018D069A058
:1015C60016D05EDF040E516E200E0401026F040E6B
:1015D600036F080E016F000E0015006E00C000F4C8
:1015E6008C0E0011006E00C000F4FE0E681668A88E
:1015F60005D069A803D07CDEEF0E681668AC11D062
:1016060069AC0FD0730E0001846F000E856F866B78
:10161600876B010E886F000E896F6AEC02F0BF0EB1
:10162600681668AA03D069AA01D072DE68A210D033
:1016360069A20ED0FF0E0001846F3F0E856F866B88
:10164600876B010E886F000E896F6AEC02F06A6A7A
:10165600040E515C02E24ADE28D069A625D00001BC
:101666007F6B040E7F5D20E268A61AD06CCF6DF00A
:10167600F70E6816780E6D15016E0150000A02E12C
:1016860065DE0DD0720E0001846F000E856F6D0E43
:10169600866F000E876F886B896B6AEC02F001D04B
:0C16A60003D000017F2BDDD721DE1200F5
:1016B20064C075F065C076F0400E0001776F010ED0
:0616C200786F57DD1200F5
:1016C80071C075F072C076F073C077F0010E00013A
:0616D800786FC1DD120075
:1016DE000A0EC16E070EB412936A816A946A826A08
:1016EE002ADF000E0001716F050E726F400E736FD0
:1016FE00050E746F2EDFD6DF005255E0050128511E
:10170E00010A02E1FF0E936E2951010AD8B4936AC1
:10171E002A51010A02E1FF0E946E2B51010AD8B430
:10172E00946A1E51010A02E181701E6B1F51010A5B
:10173E0002E181721F6B2051010A02E18174206B5C
:10174E002151010A02E18176216B2251010A02E147
:10175E008178226B2351010A02E1817A236B245195
:10176E00010A02E1817C246B2551010A02E1817E8E
:10177E00256B1551010A02E18270156B1651010A93
:10178E0002E18272166B1751010A02E18274176B25
:10179E001851010A02E1827C186B1951010A02E10B
:1017AE00827E196BAED081A004D00501010E5E6F52
:1017BE0002D005015E6B81A203D0010E5F6F01D0D6
:1017CE005F6B81A403D0010E606F01D0606B81A6A8
:1017DE0003D0010E616F01D0616B81A803D0010EA1
:1017EE00626F01D0626B81AA03D0010E636F01D0CC
:1017FE00636B81AC03D0010E646F01D0646B81AE5C
:10180E0003D0010E656F01D0656B82A003D0010E6F
:10181E00556F01D0556B82A203D0010E566F01D0C9
:10182E00566B82A403D0010E576F01D0576B82AC5A
:10183E0003D0010E586F01D0586B82AE03D0010E4B
:10184E00596F01D0596B0001716B5ADE00C04BF01D
:10185E0001C04CF000C04BF501C002F0036A02C09B
:10186E004CF5010E0001716F4BDE00C049F001C056
:10187E004AF000C04DF501C002F0036A02C04EF5F9
:10188E00020E0001716F3CDE00C04FF001C050F03F
:10189E0000C04FF501C002F0036A02C050F5030EFE
:1018AE000001716F2DDE00C04DF001C04EF000C082
:1018BE0051F501C002F0036A02C052F5040E000198
:1018CE00716F1EDE00C047F001C048F000C053F536
:1018DE0001C002F0036A02C054F5400E0001716FA0
:1018EE00050E726F400E736FE8DE005201E1F5D700
:1018FE00210E0C6E760E0D6E0D2EFED70C2EFCD715
:06190E000000F9D6FFD72E
:10191400320341006F0079006F006E0020002D003B
:1019240020005300690064006500770069006E00C0
:101934006400650052002700730020004C00410041
:0219440042005F
:101946002E0341006F0079006F006E0027007300C0
:1019560020002000550053004200200049004F009F
:0E196600200044006500760069006300650003
:101974000902290001010080320904000002030069
:101984000000092101010001222100070581034013
:09199400000107050103400001F8
:10199D000600FF0901A10119012940150026FF00CC
:1019AD0075089540810219012940750895409102ED
:0119BD00C069
:1019BE0012010002000000083412010001000102B1
:0219CE00000116
:0419D00004030904FF
:020000040030CA
:0E000000000C1F1EFF8381FF0FC00FE00F409A
:00000001FF
