:02000000402B93
:0E000600F201F101F001F801F30100300800F1
:1000140083120313F801F9011030FC00710DF80D7F
:10002400F90D7408F8027508031C750FF90203181A
:1000340022287408F80775080318750FF9070310C8
:0A004400F00DF10DFC0B1028080070
:08004E00FA1FF2130030080054
:100056007B15FB1F35280130F300F201F101F00199
:08006600FA0DF20CFF30080056
:06006E00FB15FF30080045
:10007400FB14FB1F4428FF30F300F200F100F000F2
:08008400FA0DF20CFF30080038
:0E008C008312031337088A003608820008002A
:0C009A0000000000000000000000080052
:1000A600243083120313FD00FD0B572800000800BF
:1000B6007B14FB1F6628F201FA1FFF30F200F100E5
:0A00C600F000FA0DF20CFF30080004
:1000D0008316031398186E280000682883124108BD
:0400E000990008007B
:1000E40083120313C4010530440203188028440812
:1000F4004307840020308000C40A7528440843075D
:1001040084008001C40344084307C5000A30F40096
:10011400F5014108F0004208F1000A207808F000D7
:100124007908F1003030F007450884007008800039
:100134000A30F400F5014108F0004208F1000A20F9
:100144007008C1007108C20000307106031DAC289C
:1001540000307006031DAF28B128C40385280800A9
:10016400243083120313FC00B530FD00FD0BB828C6
:0A017400FC0BB82800000000080092
:10017E00A0017208031DD4287108F2007008F10066
:10018E00F001A0157208031DD4287108F200F101C8
:10019E00A011201672080319E2282008F302031D8D
:1001AE00031CE6280310F21BEA28F00DF10DF20DE8
:1001BE00F30BDA28E6280130FC000320ED2802308C
:0E01CE00FC002B20ED280430FC002720080048
:1001DC0083120313BD01BE013808BF003908C000EB
:1001EC0080303906F00080307002031DFF2800308B
:1001FC00380203180D290130BD000030BE0038084C
:10020C00003CBF003908031C013EC001C0023F087E
:10021C00C1004008C2003A08C30072200630BB007F
:10022C000030BC003C08003C031D1E293B08003C70
:10023C00031839293B083A07F20001303B02F00061
:10024C000030031C013E3C02F10070083A078400A8
:10025C000008F00072088400700880000130BB02B6
:10026C00031CBC0318293A088400203080003D0888
:10027C003E0403195729BB01BC013B083A07840013
:10028C000008203A031D4E29BB0A0319BC0A432956
:10029C000130BB02031CBC033B083A0784002D3021
:0402AC0080000800C6
:1002B00083120313FB017308031995297208FA00CE
:1002C000F2178E30F302F31F9829F309F30A08306E
:1002D0007302031C7B29F300F10D7208F100F20197
:1002E00008307302031C7B29F300F10DF101730840
:1002F000031D031083297308031983290310F20CCB
:10030000F10CF30B7E297B1B711C8D29031C8D299D
:10031000F10A0319F20AF21BA429FA1FA729F2090C
:10032000F109F10A0319F20AA729F201F101A7293B
:100330007B14FB1FAA29F201FA1FAA29FF30F20041
:10034000F100FA0DF20CAA290130FC00AC290030B2
:10035000FC00AC29FF30FC00FC080319B0295B202D
:0A0360007108F0007208F1000800B7
:10036A00831203139F01C0309F0483161F179F1720
:10037A0083123808F000F00D7010F00D7010F00DB7
:10038A00701070089F041F1453201F151F1DCF29BA
:10039A000000CB291F101E08F100F00183161E0869
:0803AA00F0040030F10408002A
:1003B20083120313BA01380884000008B90039080F
:1003C200003A0319EE293908C1006820BA0A3A082E
:0C03D200380784000008B900E02908008A
:1003DE00831203137008F8007108F000F101F201A6
:1003EE00F301FB01FC019630F300FA01F01F052A20
:1003FE00F809F009F80A0319F00AFA177008F10063
:0C040E007808F000F801F201BF2008009F
:10041A00FF3083120313B300FF30B400FF30B5007E
:10042A00FF309F01C0309F0483161F179F17831246
:04043A001F14080083
:10043E0046208A110A128000840AB60A0319B70AE6
:08044E00F003031D1F2A080042
:1004560083160313881108110812881208138813CB
:100466008312881108118813081388120812B22003
:10047600B220B2208816081688154D208811B220A1
:1004860088154D208811B22088154D208811B2207C
:10049600081288154D208811B22088154D20881124
:1004A6008812881788154D208811B22088130816DF
:1004B60088154D208811081288154D208811B22004
:1004C60088154D208811081688154D208811B220F0
:1004D600081288154D2088118817081788160816DF
:0C04E60088154D208811B2203214080047
:1004F200831203137408003A031D942A7508003A04
:10050200031D942A7608003A031D942A7708003ABC
:10051200031D942AFF30F000FF30F1007F30F2001B
:10052200FF30F3002F2B8312031377080319232BB9
:1005320073080319262B720876068039FA00F2171F
:10054200F617A0017208F8007108FC007008FD009F
:100552007408FD027508031C750FFC027608031C63
:10056200760FF802F801FC01FD01031CBF2A0310FB
:10057200F20CF10CF00CF80C0130A0007708F30239
:10058200031CC92A7E302007F3070318292BCE2A21
:100592007E302007F307031C2C2B1830FA07FD0DC1
:1005A200FC0DF80DF00DF10DF20DA00D7408F00226
:1005B2007508031C750FF1027608031C760FF20210
:1005C200760DA004201CE72A7D14F22A7408F00795
:1005D20075080318750FF10776080318760AF207F3
:1005E2007D10FA031F307A05031DD02A7B1B7D1C68
:1005F200192B0310F00DF10DF20DA00D7408F0028D
:100602007508031C750FF1027608031C760FF202BF
:10061200760D20040139FD070318FC0A0319F80AB4
:10062200031D192BF80CFC0CFD0CF30A0319292BE2
:10063200FA1FF8137808F2007C08F1007D08F00038
:1006420000302E2B013037202E2B023003202E2B90
:0E06520004303A202E2B08302B200000080028
:100660008316031398169030831298008316871709
:10067000071383128C1E3F2B1A08F000392B080039
:10068000413083120313A1006430A2006330A30041
:100690002030A4005630A5006130A6006C30A700C1
:1006A0007530A8006530A900AA012130AB000A30DE
:1006B000AC00AD0183169F018601FF3087008312D5
:1006C00086010D222B2281308316990018153023C4
:1006D0000230FB004530FC00A930FD00FD0B6E2B05
:1006E000FC0B6E2BFB0B6E2B00000000B801B5213C
:1006F00070088312B0007108B100EF210A30F400D5
:10070000D730F5000330F6008030F7007922582109
:100710007008AE007108AF007008B8007108B90029
:100720002B08BA00EE202B08B800D9212C30B800D5
:10073000D9210230FB004530FC00A930FD00FD0B43
:100740009F2BFC0B9F2BFB0B9F2B00000000762B9D
:02075000A82BD4
:02400E007A3BFB
:00000001FF
