:0200000047288F
:100006008316031398180928000003283908831259
:040016009900080045
:0E001A008316031335088A003408820008009C
:1000280083160313B801360884000008B7003708A0
:10003800003A03192A283708B90003208316B80A9A
:0E0048003808360784000008B7001B2808009F
:100056000D208A110A128000840AB40A0319B50A0F
:08006600F003031D2B28080024
:10006E008316031398169030831298008316871701
:10007E00071383128C1E46281A08F0004028080029
:10008E00EE208130831603139900181537200230A5
:10009E00FB004530FC00A930FD00FD0B5428FC0B85
:1000AE005428FB0B5428000000008316B201B30144
:1000BE0080303306F00080307002031D6828053052
:1000CE003202031885283208203E84000008B6004C
:1000DE0014202530B60014204D30FB001930FC00E2
:1000EE004F30FD00FD0B7928FC0B7928FB0B79288E
:1000FE0000000000B20A0319B30A5F285C288628A4
:1001DC0020308400503083120313F0008C308316CF
:1001EC00B4000030B5002B20A030840012308312F4
:1001FC000313F000DC308316B4000030B5002B2064
:02020C000800E8
:0A0118004A345B34A0342734383435
:040122000A34003467
:100126006534723467343334343472347634653437
:100136006434763474347234683475347734733492
:02014600003483
:1001480077346534723467346634763477343334CC
:1001580034346634693475347634643476343434FB
:0401680072340034B9
:10016C007534693462346834383437346734623403
:10017C0038346434633438346434633467347434FA
:02018C0000343D
:10018E006B346C34673433343434663478346334DB
:10019E006634693469346534743472346B346F3454
:0A01AE006F3468346934683400349B
:1001B80066347234643463347234333434347234AD
:1001C80066346534643476346B347034683465343A
:0401D8006C3400344F
:02400E007A3BFB
:00000001FF
